:020000040000FA
:04000000C7EF3FF017
:107F8E000001D3EF3FF0000E816E000E836E000EE7
:107F9E00936E000E956E1200CAEC3FF0210E836EAA
:107FAE00520E026E2B0E016E000EE82EFED7012E23
:107FBE00FCD7022EFAD700D0120E836E150E026E6B
:107FCE004B0E016EBE0EE82EFED7012EFCD7022EF2
:107FDE00FAD700D00C0E836E520E026E2B0E016E6F
:107FEE00000EE82EFED7012EFCD7022EFAD700D0B7
:027FFE00D5D7D5
:020000040020DA
:08000000FFFFFFFFFFFFFFFF00
:020000040030CA
:0E000000FF021F1EFF8385FF0FC00FE00F40A1
:00000001FF
