:020000040000FA
:04000000BFEF3FF01F
:107F7E000001C2EF3FF0000E956E000E936E000EE4
:107F8E00836E000E816E0B0E026E260E016E5E0E5D
:107F9E00E82EFED7012EFCD7022EFAD7000E046E65
:107FAE00000E036E080E836E050E026E0F0E016E2E
:107FBE00F10EE82EFED7012EFCD7022EFAD700F0D6
:107FCE00000E836E050E026E0F0E016EF10EE82E80
:107FDE00FED7012EFCD7022EFAD700F0034A042A50
:107FEE0004BEE0D70450CFE1050E035CD8B0CBD76A
:027FFE00D9D7D1
:020000040020DA
:08000000FFFFFFFFFFFFFFFF00
:020000040030CA
:0E000000FF021F1EFF8385FF0FC00FE00F40A1
:00000001FF
