:020000040000FA
:040000000EEF20F0EF
:100600000000000000DCCFD1350000000000C01564
:100610003F6042A20D70A5EC363BAAB83F4F38763A
:100620003F3CAA38338CBEBF350072313F1872315F
:100630003F4CBB31330EEADDB555B38A38610B361A
:10064000BBABAA2A3E42F1533E55326C3E05A38B0A
:100650003EABAAAA3EB76DDB3E9A99193F6042A213
:100660000DCAF249710000804B0000803F0000C0BD
:0F0670003F00AAB83FC623F6B80040763F00000F
:100680006FC0B8F170C0B9F171C0BAF172C0BBF1FE
:10069000B8C160F1B9C161F1BAC162F1BBC163F126
:1006A00073C0B8F174C0B9F175C0BAF176C0BBF1CE
:1006B000B8C184F1B9C185F1BAC186F1BBC187F176
:1006C000FF0E01016015A86FFF0E6115A96FFF0EE7
:1006D0006215AA6F7F0E6315AB6FFF0E8415986FBE
:1006E000FF0E8515996FFF0E86159A6F7F0E871581
:1006F0009B6F985199119A119B11D8A409D0000EA3
:100700006F6E000E706E800E716E3F0E726E120074
:10071000800E62190FE13F0E631960116111D8A4B8
:1007200009D0000E6F6E000E706E800E716E3F0E5F
:10073000726E1200ABBF09D0A805000EA959800E39
:10074000AA597F0EAB59D8B00BD09BBF24D09805C7
:10075000000E9959800E9A597F0E9B59D8A01BD034
:100760006FC001F070C002F071C003F072C004F0FD
:1007700073C005F074C006F075C007F076C008F0CD
:100780002DEC1AF001C06FF002C070F003C071F0E0
:1007900004C072F01200000E506F000E516F000E78
:1007A000526F000E536F63AF90D09BBF0ED0800E80
:1007B0009A5D4B0E9B59D8A008D0020E506F000EC8
:1007C000516F000E526F000E7FD09BBF7ED0800E07
:1007D0009A5D3F0E9B59D8A078D0170E776E98C1BE
:1007E00078F099C179F09AC17AF09BC17BF0776675
:1007F00001D007D07B347B327A3279327832772E4F
:10080000F6D7810E78240101A06FFF0E7920A16F29
:10081000FF0E7A20A26FFF0E7B20A36FA051170856
:10082000776E98C178F099C179F09AC17AF09BC13E
:100830007BF0776601D007D07B347B327A32793215
:100840007832772EF6D778C0ACF179C0ADF17AC0A6
:10085000AEF17BC0AFF10101A0511708776EACC1BA
:1008600078F0ADC179F0AEC17AF0AFC17BF0772AF4
:1008700005D0D890783679367A367B36772EF9D708
:100880009851781822E1995179181FE19A517A18F4
:100890001CE19B517B18D8A418D0010EAC15776EC3
:1008A000000EAD15786E000EAE15796E000EAF1508
:1008B0007A6E77500208506F000E7854516F000E18
:1008C0007954526F000E7A54536F800E9A1955E185
:1008D0007F0E9B1998119911D8A44FD0800EAA1998
:1008E0000FE13F0EAB19A811A911D8A409D0000E31
:1008F0006F6E000E706E800E716E3F0E726E120083
:10090000ABBF1DD0A805000EA959800EAA593F0EF5
:10091000AB59D8A014D087AF09D0000E6F6E000E6F
:10092000706E000E716E000E726E120073C06FF06A
:1009300074C070F075C071F076C072F0120087AFAD
:1009400013D073C001F074C002F075C003F076C01C
:1009500004F0E6EC1FF001C06FF002C070F003C0BD
:1009600071F004C072F01200000E6F6E000E706E17
:10097000000E716E000E726E1200800E9A192CE13C
:100980003F0E9B1998119911D8A426D087AF1BD080
:10099000000E326E000E336E800E346E3F0E356EDA
:1009A0006FC036F070C037F071C038F072C039F0E7
:1009B000B3EC1BF032C06FF033C070F034C071F094
:1009C00035C072F012006FC06FF070C070F071C06F
:1009D00071F072C072F01200400E871984118511F7
:1009E0008611D8A41BD06FC011F070C012F071C076
:1009F00013F072C014F06FC015F070C016F071C023
:100A000017F072C018F084EC18F011C06FF012C02B
:100A100070F013C071F014C072F012003F0E87190D
:100A2000841185118611D8B463BF13D06FC03EF016
:100A300070C03FF071C040F072C041F071EC16F030
:100A40003EC06FF03FC070F040C071F041C072F026
:100A500012006FC001F070C002F071C003F072C0EC
:100A600004F0CCEC1FF001C070F102C071F103C0C2
:100A700072F104C073F1800E0101AA1906E17F0E24
:100A8000AB19A811A911D8B40FD0A851A911AA1156
:100A9000AB11D8B409D0800EAA1905E13F0EAB19ED
:100AA000A811A911D8A4A5D070C1B4F171C1B5F134
:100AB00072C1B6F173C1B7F187AF1AD0000E326EB2
:100AC000000E336E800E346E3F0E356EB4C136F0BC
:100AD000B5C137F0B6C138F0B7C139F0B3EC1BF08F
:100AE00032C0B4F133C0B5F134C0B6F135C0B7F19E
:100AF000010163AF75D0000EA825776E000EA92105
:100B0000786E800EAA21796EC00EAB217A6E50519C
:100B100077107B6E515178107C6E525179107D6E3A
:100B200053517A107E6E7B507C107D107E10D8A4BD
:100B30003FD0B4C12EF0B5C12FF0B6C130F0B7C16F
:100B400031F0B4C12AF0B5C12BF0B6C12CF0B7C159
:100B50002DF0A9EC1FF02AC032F02BC033F02CC0CE
:100B600034F02DC035F0B4C12EF0B5C12FF0B6C1B0
:100B700030F0B7C131F0B4C12AF0B5C12BF0B6C125
:100B80002CF0B7C12DF0A9EC1FF02AC036F02BC015
:100B900037F02CC038F02DC039F0B3EC1BF032C068
:100BA000B4F133C0B5F134C0B6F135C0B7F118D0E7
:100BB0005005511152115311D8A412D0B4C101F0F3
:100BC000B5C102F0B6C103F0B7C104F0E6EC1FF006
:100BD00001C0B4F102C0B5F103C0B6F104C0B7F171
:100BE000B4C16FF0B5C170F0B6C171F0B7C172F0A9
:100BF0001200000E886F000E896F800E8A6F3F0E04
:100C00008B6F63AF53D05051511152115311D8A46F
:100C10003FD06FC02EF070C02FF071C030F072C0A6
:100C200031F06FC02AF070C02BF071C02CF072C090
:100C30002DF0A9EC1FF02AC032F02BC033F02CC0ED
:100C400034F02DC035F06FC02EF070C02FF071C0A1
:100C500030F072C031F06FC02AF070C02BF071C05C
:100C60002CF072C02DF0A9EC1FF02AC036F02BC07A
:100C700037F02CC038F02DC039F0B3EC1BF032C087
:100C80006FF033C070F034C071F035C072F01200F4
:100C90005005511152115311D8A408D0000E886F7D
:100CA000000E896F800E8A6FBF0E8B6F9BBF6BD259
:100CB0009805000E9959000E9A594D0E9B59D8A0CF
:100CC00062D2ABBF0AD0F80EA85DFF0EA9597F0E05
:100CD000AA593F0EAB59D8B06CD087BF35D0600E43
:100CE000156E420E166EA20E176E0D0E186E88C18E
:100CF00011F089C112F08AC113F08BC114F084EC99
:100D000018F011C0A4F112C0A5F113C0A6F114C0CF
:100D1000A7F1A4C111F0A5C112F0A6C113F0A7C19B
:100D200014F0600E156E420E166EA20E176E0D0EAA
:100D3000186E84EC18F011C06FF012C070F013C080
:100D400071F014C072F01200CA0E156EF20E166E1B
:100D5000490E176E710E186E88C111F089C112F01C
:100D60008AC113F08BC114F084EC18F011C0A4F107
:100D700012C0A5F113C0A6F114C0A7F1A4C111F0CF
:100D8000A5C112F0A6C113F0A7C114F0CA0E156ECA
:100D9000F20E166E490E176E710E186E84EC18F076
:100DA00011C06FF012C070F013C071F014C072F077
:100DB0001200ABBF7DD0080EA85D000EA959800EB1
:100DC000AA593F0EAB59D8A073D087BF07D087511F
:100DD0008611851138E18405D8B035D0600E156EC6
:100DE000420E166EA20E176E0D0E186E88C111F00F
:100DF00089C112F08AC113F08BC114F084EC18F091
:100E000011C0A4F112C0A5F113C0A6F114C0A7F13E
:100E1000A4C111F0A5C112F0A6C113F0A7C114F02E
:100E2000600E156E420E166EA20E176E0D0E186E27
:100E300084EC18F011C06FF012C070F013C071F0A4
:100E400014C072F01200CA0E156EF20E166E490E24
:100E5000176E710E186E88C111F089C112F08AC127
:100E600013F08BC114F084EC18F011C0A4F112C07F
:100E7000A5F113C0A6F114C0A7F1A4C111F0A5C13A
:100E800012F0A6C113F0A7C114F0CA0E156EF20E2F
:100E9000166E490E176E710E186E84EC18F011C0A4
:100EA0006FF012C070F013C071F014C072F0120035
:100EB00070C101F071C102F072C103F073C104F09E
:100EC000000E056E000E066E800E076EBF0E086ED9
:100ED0002DEC1AF001C0B0F102C0B1F103C0B2F1C3
:100EE00004C0B3F1000E156E000E166E800E176E64
:100EF0003E0E186EB0C111F0B1C112F0B2C113F0C4
:100F0000B3C114F084EC18F011C02EF012C02FF011
:100F100013C030F014C031F0AB0E2A6EAA0E2B6E47
:100F2000AA0E2C6E3E0E2D6EA9EC1FF02AC0A4F165
:100F30002BC0A5F12CC0A6F12DC0A7F1B0C115F0B2
:100F4000B1C116F0B2C117F0B3C118F0B0C111F0C1
:100F5000B1C112F0B2C113F0B3C114F084EC18F0B7
:100F600011C054F112C055F113C056F114C057F11D
:100F7000B0C115F0B1C116F0B2C117F0B3C118F08D
:100F8000A4C111F0A5C112F0A6C113F0A7C114F0BD
:100F900084EC18F011C02EF012C02FF013C030F006
:100FA00014C031F0000E2A6E000E2B6E000E2C6E57
:100FB0003F0E2D6EA9EC1FF02AC048F12BC049F15D
:100FC0002CC04AF12DC04BF154C111F055C112F0A3
:100FD00056C113F057C114F048C115F049C116F0BD
:100FE0004AC117F04BC118F084EC18F011C044F15D
:100FF00012C045F113C046F114C047F1B0C111F061
:10100000B1C112F0B2C113F0B3C114F0000E156EED
:10101000AA0E166EB80E176E3F0E186E84EC18F0FE
:1010200011C074F112C075F113C076F114C077F1DC
:10103000700E156EA50E166EEC0E176E360E186E2F
:10104000B0C111F0B1C112F0B2C113F0B3C114F0CC
:1010500084EC18F011C02AF012C02BF013C02CF051
:1010600014C02DF03B0E156EAA0E166EB80E176E3C
:101070003F0E186E44C111F045C112F046C113F085
:1010800047C114F084EC18F011C02EF012C02FF0FC
:1010900013C030F014C031F0A9EC1FF02AC078F171
:1010A0002BC079F12CC07AF12DC07BF174C101F015
:1010B00075C102F076C103F077C104F078C105F084
:1010C00079C106F07AC107F07BC108F02DEC1AF067
:1010D00001C080F102C081F103C082F104C083F13C
:1010E00080C1B8F181C1B9F182C1BAF183C1BBF14C
:1010F000B8C190F1B9C191F1BAC192F1BBC193F1FC
:10110000000E01019015B86FF00E9115B96FFF0E2A
:101110009215BA6FFF0E9315BB6FB8C180F1B9C1BC
:1011200081F1BAC182F1BBC183F174C12EF075C1E6
:101130002FF076C130F077C131F080C12AF081C143
:101140002BF082C12CF083C12DF0A9EC1FF02AC036
:1011500094F12BC095F12CC096F12DC097F178C178
:101160002AF079C12BF07AC12CF07BC12DF094C10B
:101170002EF095C12FF096C130F097C131F0A9EC57
:101180001FF0E4EF0FF0000E7C6F000E7D6F000E7D
:101190007E6F000E7F6FABBF06D0AB5137E1800E84
:1011A000AA5DD8B033D070C111F071C112F072C114
:1011B00013F073C114F0000E156E000E166E800E43
:1011C000176E4B0E186E84EC18F011C070F112C03F
:1011D00071F113C072F114C073F1E80E01017C27A4
:1011E000FF0E7D23FF0E7E23FF0E7F2370C1B8F11B
:1011F00071C1B9F172C1BAF173C1BBF1B8C1A8F143
:10120000B9C1A9F1BAC1AAF1BBC1ABF1170E776E92
:10121000A8C178F0A9C179F0AAC17AF0ABC17BF07E
:10122000776601D007D07B347B327A3279327832DC
:10123000772EF6D7810E78247C6EFF0E79207D6E96
:10124000FF0E7A207E6EFF0E7B207F6E7C500101A8
:101250007C277D507D237E507E237F507F23FF0E91
:10126000A815AC6FFF0EA915AD6F7F0EAA15AE6F56
:10127000000EAB15AF6F000EAC11A86F000EAD11D4
:10128000A96F800EAE11AA6F3F0EAF11AB6FAFBF4B
:101290000AD0AF510AE1720EAC5DC40EAD591C0EFE
:1012A000AE59D8B002D0000E0DD0AFBF0AD0AF51AA
:1012B00011E1D70EAC5DB30EAD595D0EAE59D8B08D
:1012C00009D0010EA06F000EA16F000EA26F000EDC
:1012D000A36F16D0000EA06F000EA16F000EA26FBC
:1012E000000EA36F010E7C27000E7D237E237F233B
:1012F000000EA827000EA923800EAA23FF0EAB2301
:10130000A8C1B8F1A9C1B9F1AAC1BAF1ABC1BBF189
:10131000B8C170F1B9C171F1BAC172F1BBC173F159
:1013200070C12AF071C12BF072C12CF073C12DF085
:10133000A0C177F0A1C178F0D89077367836D890F0
:1013400077367836690E7724F66E060E7820F76EBB
:101350000900F5CF2EF00900F5CF2FF00900F5CFE9
:1013600030F00A00F5CF31F0A9EC1FF02AC074F17B
:101370002BC075F12CC076F12DC077F1000E326EC6
:10138000000E336E800E346E3F0E356E70C105F068
:1013900071C106F072C107F073C108F0A0C177F007
:1013A000A1C178F0D89077367836D89077367836ED
:1013B000690E7724F66E060E7820F76E0900F5CFD9
:1013C00001F00900F5CF02F00900F5CF03F00A00A3
:1013D000F5CF04F02DEC1AF001C036F002C037F062
:1013E00003C038F004C039F0B3EC1BF032C078F120
:1013F00033C079F134C07AF135C07BF174C111F09A
:1014000075C112F076C113F077C114F078C115F0F0
:1014100079C116F07AC117F07BC118F084EC18F08E
:1014200011C05CF112C05DF113C05EF114C05FF138
:101430005CC16CF15DC16DF15EC16EF15FC16FF1B8
:101440006CC1B8F16DC1B9F16EC1BAF16FC1BBF138
:10145000B8C190F1B9C191F1BAC192F1BBC193F198
:10146000000E01019015B86FF00E9115B96FFF0EC7
:101470009215BA6FFF0E9315BB6FB8C16CF1B9C16D
:101480006DF1BAC16EF1BBC16FF1A8C177F0A9C10E
:1014900078F0AAC179F0ABC17AF07A347A32793235
:1014A00078327732000E77147B6EF00E78147C6EF3
:1014B000FF0E79147D6EFF0E7A147E6E000E7B1087
:1014C000906F000E7C10916F000E7D10926F200EB9
:1014D0007E10936FA0C177F0A1C178F0A2C179F01E
:1014E000A3C17AF0150ED8907736783679367A36E9
:1014F000E82EF9D7905177247B6E915178207C6E3D
:10150000925179207D6E93517A207E6E000E7B245D
:10151000B86F000E7C20B96F400E7D20BA6F000EB0
:101520007E20BB6FB8C168F1B9C169F1BAC16AF177
:10153000BBC16BF1A0C177F0A1C178F0D89077362C
:101540007836D89077367836690E7724F66E060EA0
:101550007820F76E0900F5CF2EF00900F5CF2FF0B7
:101560000900F5CF30F00A00F5CF31F068C12AF05C
:1015700069C12BF06AC12CF06BC12DF0A9EC1FF0F2
:101580002AC094F12BC095F12CC096F12DC097F193
:1015900070C12AF071C12BF072C12CF073C12DF013
:1015A00094C12EF095C12FF096C130F097C131F063
:1015B000A9EC1FF02AC034F12BC035F12CC036F154
:1015C0002DC037F168C115F069C116F06AC117F076
:1015D0006BC118F06CC111F06DC112F06EC113F047
:1015E0006FC114F084EC18F011C02EF012C02FF06F
:1015F00013C030F014C031F074C12AF075C12BF063
:1016000076C12CF077C12DF0A9EC1FF02AC094F11F
:101610002BC095F12CC096F12DC097F134C115F077
:1016200035C116F036C117F037C118F06CC111F092
:101630006DC112F06EC113F06FC114F084EC18F09C
:1016400011C02EF012C02FF013C030F014C031F0D2
:1016500094C12AF095C12BF096C12CF097C12DF0C2
:10166000A9EC1FF02AC054F12BC055F12CC056F143
:101670002DC057F154C111F055C112F056C113F0ED
:1016800057C114F078C115F079C116F07AC117F07E
:101690007BC118F084EC18F011C030F112C031F1A8
:1016A00013C032F114C033F15CC111F05DC112F00E
:1016B0005EC113F05FC114F05CC115F05DC116F09E
:1016C0005EC117F05FC118F084EC18F011C08CF106
:1016D00012C08DF113C08EF114C08FF1550E056E3E
:1016E000320E066E6C0E076E3E0E086E420E156EC2
:1016F000F10E166E530E176E3E0E186E8CC111F061
:101700008DC112F08EC113F08FC114F084EC18F06B
:1017100011C001F012C002F013C003F014C004F0B5
:101720002DEC1AF001C0A4F102C0A5F103C0A6F18E
:1017300004C0A7F1050E056EA30E066E8B0E076E94
:101740003E0E086E8CC115F08DC116F08EC117F0DB
:101750008FC118F0A4C111F0A5C112F0A6C113F0F9
:10176000A7C114F084EC18F011C001F012C002F00F
:1017700013C003F014C004F02DEC1AF001C054F1B2
:1017800002C055F103C056F104C057F1AB0E056E0F
:10179000AA0E066EAA0E076E3E0E086E8CC115F0DC
:1017A0008DC116F08EC117F08FC118F054C111F021
:1017B00055C112F056C113F057C114F084EC18F063
:1017C00011C001F012C002F013C003F014C004F005
:1017D0002DEC1AF001C048F102C049F103C04AF1F2
:1017E00004C04BF1B70E056E6D0E066EDB0E076E74
:1017F0003E0E086E8CC115F08DC116F08EC117F02B
:101800008FC118F048C111F049C112F04AC113F05C
:101810004BC114F084EC18F011C001F012C002F0BA
:1018200013C003F014C004F02DEC1AF001C038F11D
:1018300002C039F103C03AF104C03BF19A0E056EC3
:10184000990E066E190E076E3F0E086E8CC115F0CC
:101850008DC116F08EC117F08FC118F038C111F08C
:1018600039C112F03AC113F03BC114F084EC18F006
:1018700011C001F012C002F013C003F014C004F054
:101880002DEC1AF001C000F102C001F103C002F119
:1018900004C003F18CC115F08DC116F08EC117F094
:1018A0008FC118F08CC111F08DC112F08EC113F0F0
:1018B0008FC114F084EC18F011C004F112C005F1CE
:1018C00013C006F114C007F100C111F001C112F0FC
:1018D00002C113F003C114F004C115F005C116F0E4
:1018E00006C117F007C118F084EC18F011C04CF1D4
:1018F00012C04DF113C04EF114C04FF130C115F0BC
:1019000031C116F032C117F033C118F05CC105F0D7
:101910005DC106F05EC107F05FC108F06CC101F067
:101920006DC102F06EC103F06FC104F02DEC1AF02E
:1019300001C011F002C012F003C013F004C014F093
:1019400084EC18F011C058F112C059F113C05AF1CB
:1019500014C05BF14CC101F04DC102F04EC103F067
:101960004FC104F058C105F059C106F05AC107F043
:101970005BC108F02DEC1AF001C04CF102C04DF132
:1019800003C04EF104C04FF16CC111F06DC112F0F3
:101990006EC113F06FC114F06CC115F06DC116F07B
:1019A0006EC117F06FC118F084EC18F011C08CF103
:1019B00012C08DF113C08EF114C08FF1000E056EB0
:1019C000000E066E400E076E400E086E8CC101F0D0
:1019D0008DC102F08EC103F08FC104F02DEC1AF01E
:1019E00001C058F102C059F103C05AF104C05BF1C3
:1019F00058C101F059C102F05AC103F05BC104F0B3
:101A00004CC105F04DC106F04EC107F04FC108F0C2
:101A10002DEC1AF001C068F102C069F103C06AF14F
:101A200004C06BF168C1B8F169C1B9F16AC1BAF11A
:101A30006BC1BBF1B8C190F1B9C191F1BAC192F1DA
:101A4000BBC193F1000E01019015B86FF00E911516
:101A5000B96FFF0E9215BA6FFF0E9315BB6FB8C129
:101A600068F1B9C169F1BAC16AF1BBC16BF1000E8D
:101A7000056E000E066E400E076EC00E086E68C141
:101A800001F069C102F06AC103F06BC104F02DECF2
:101A90001AF001C03CF102C03DF103C03EF104C0A8
:101AA0003FF18CC12EF08DC12FF08EC130F08FC16F
:101AB00031F03CC12AF03DC12BF03EC12CF03FC1BA
:101AC0002DF0A9EC1FF02AC040F12BC041F12CC031
:101AD00042F12DC043F14CC12AF04DC12BF04EC153
:101AE0002CF04FC12DF040C12EF041C12FF042C16A
:101AF00030F043C131F0A9EC1FF02AC034F12BC003
:101B000035F12CC036F12DC037F16CC111F06DC12B
:101B100012F06EC113F06FC114F068C115F069C105
:101B200016F06AC117F06BC118F084EC18F011C000
:101B300074F112C075F113C076F114C077F168C169
:101B400015F069C116F06AC117F06BC118F030C109
:101B500011F031C112F032C113F033C114F084EC32
:101B600018F011C001F012C002F013C003F014C04D
:101B700004F05CC115F05DC116F05EC117F05FC1E5
:101B800018F034C111F035C112F036C113F037C16D
:101B900014F084EC18F011C005F012C006F013C068
:101BA00007F014C008F02DEC1AF001C078F102C063
:101BB00079F103C07AF104C07BF174C101F075C101
:101BC00002F076C103F077C104F078C105F079C165
:101BD00006F07AC107F07BC108F02DEC1AF001C0C5
:101BE0009CF102C09DF103C09EF104C09FF19CC115
:101BF000B8F19DC1B9F19EC1BAF19FC1BBF1B8C1A5
:101C000090F1B9C191F1BAC192F1BBC193F1000E4B
:101C100001019015B86FF00E9115B96FFF0E921576
:101C2000BA6FFF0E9315BB6FB8C19CF1B9C19DF19E
:101C3000BAC19EF1BBC19FF174C12EF075C12FF0E6
:101C400076C130F077C131F09CC12AF09DC12BF0F4
:101C50009EC12CF09FC12DF0A9EC1FF02AC094F179
:101C60002BC095F12CC096F12DC097F178C12AF0C8
:101C700079C12BF07AC12CF07BC12DF094C12EF0EC
:101C800095C12FF096C130F097C131F0A9EC1FF04B
:101C90002AC064F12BC065F12CC066F12DC067F13C
:101CA0009CC111F09DC112F09EC113F09FC114F0B0
:101CB000000E156E400E166E760E176E3F0E186EE5
:101CC00084EC18F011C020F112C021F113C022F1F0
:101CD00014C023F14F0E156E380E166E760E176E69
:101CE0003F0E186E64C111F065C112F066C113F0A9
:101CF00067C114F084EC18F011C005F012C006F0B2
:101D000013C007F014C008F0C60E156E230E166E31
:101D1000F60E176EB80E186E9CC111F09DC112F030
:101D20009EC113F09FC114F084EC18F011C001F0B3
:101D300012C002F013C003F014C004F02DEC1AF02E
:101D400001C058F102C059F103C05AF104C05BF15F
:101D500058C101F059C102F05AC103F05BC104F04F
:101D6000A0C177F0A1C178F0D89077367836D890B6
:101D700077367836010E7724F66E060E7820F76EE9
:101D80000900F5CF05F00900F5CF06F00900F5CF01
:101D900007F00A00F5CF08F02DEC1AF001C024F18D
:101DA00002C025F103C026F104C027F17CC101F077
:101DB0007DC102F07EC103F07FC104F0010EEAECA8
:101DC0001DF001C0B0F102C0B1F103C0B2F104C016
:101DD000B3F124C105F025C106F026C107F027C1E3
:101DE00008F020C101F021C102F022C103F023C19B
:101DF00004F02DEC1AF001C058F102C059F103C0F3
:101E00005AF104C05BF1A0C177F0A1C178F0D8907D
:101E100077367836D89077367836090E7724F66E8E
:101E2000060E7820F76E0900F5CF05F00900F5CF12
:101E300006F00900F5CF07F00A00F5CF08F058C109
:101E400001F059C102F05AC103F05BC104F02DEC5E
:101E50001AF001C008F102C009F103C00AF104C080
:101E60000BF108C101F009C102F00AC103F00BC176
:101E700004F0B0C105F0B1C106F0B2C107F0B3C1C2
:101E800008F02DEC1AF001C080F102C081F103C00E
:101E900082F104C083F180C1B8F181C1B9F182C17E
:101EA000BAF183C1BBF1B8C190F1B9C191F1BAC126
:101EB00092F1BBC193F1000E01019015B86FF00EC5
:101EC0009115B96FFF0E9215BA6FFF0E9315BB6F88
:101ED000B8C180F1B9C181F1BAC182F1BBC183F14E
:101EE000B0C12EF0B1C12FF0B2C130F0B3C131F0AA
:101EF00080C12AF081C12BF082C12CF083C12DF06A
:101F0000A9EC1FF02AC094F12BC095F12CC096F1DA
:101F10002DC097F1A0C177F0A1C178F0D8907736A5
:101F20007836D89077367836090E7724F66E060E16
:101F30007820F76E0900F5CF2EF00900F5CF2FF0CD
:101F40000900F5CF30F00A00F5CF31F094C12AF046
:101F500095C12BF096C12CF097C12DF0A9EC1FF084
:101F60002AC040F12BC041F12CC042F12DC043F1F9
:101F700020C12EF021C12FF022C130F023C131F059
:101F800040C12AF041C12BF042C12CF043C12DF0D9
:101F9000A9EC1FF02AC00CF12BC00DF12CC00EF1E2
:101FA0002DC00FF124C12AF025C12BF026C12CF041
:101FB00027C12DF00CC12EF00DC12FF00EC130F055
:101FC0000FC131F0A9EC1FF02AC01CF12BC01DF18C
:101FD0002CC01EF12DC01FF173C0B8F174C0B9F14F
:101FE00075C0BAF176C0BBF1B8C190F1B9C191F139
:101FF000BAC192F1BBC193F1000E01019015B86F07
:10200000F00E9115B96FFF0E9215BA6FFF0E931572
:10201000BB6FB8C128F1B9C129F1BAC12AF1BBC15E
:102020002BF180C115F081C116F082C117F083C178
:1020300018F028C12EF029C12FF02AC130F02BC191
:1020400031F073C02AF074C02BF075C02CF076C04C
:102050002DF0A9EC1FF02AC011F02BC012F02CC0FB
:1020600013F02DC014F084EC18F011C010F112C060
:1020700011F113C012F114C013F110C101F011C11C
:1020800002F012C103F013C104F01CC115F01DC110
:1020900016F01EC117F01FC118F073C011F074C004
:1020A00012F075C013F076C014F084EC18F011C073
:1020B00005F012C006F013C007F014C008F02DECB4
:1020C0001AF001C064F102C065F103C066F104C0FA
:1020D00067F128C111F029C112F02AC113F02BC1F8
:1020E00014F080C115F081C116F082C117F083C1D0
:1020F00018F084EC18F011C09CF112C09DF113C0CF
:102100009EF114C09FF164C101F065C102F066C187
:1021100003F067C104F09CC105F09DC106F09EC1AB
:1021200007F09FC108F02DEC1AF001C0B4F102C015
:10213000B5F103C0B6F104C0B7F1B4C1B8F1B5C18F
:10214000B9F1B6C1BAF1B7C1BBF1B8C1ACF1B9C10F
:10215000ADF1BAC1AEF1BBC1AFF10101AFBF3ED02D
:10216000AC05000EAD59000EAE59430EAF59D8A0C4
:1021700035D0CA0E156EF20E166E490E176E710E20
:10218000186E88C111F089C112F08AC113F08BC199
:1021900014F084EC18F011C0A4F112C0A5F113C022
:1021A000A6F114C0A7F1A4C111F0A5C112F0A6C1F7
:1021B00013F0A7C114F0CA0E156EF20E166E490E7A
:1021C000176E710E186E84EC18F011C06FF012C00B
:1021D00070F013C071F014C072F01200430EAF190A
:1021E000AC11AD11AE11D8A46DD09CC12EF09DC123
:1021F0002FF09EC130F09FC131F0B4C12AF0B5C1BB
:102200002BF0B6C12CF0B7C12DF0A9EC1FF02AC0FD
:1022100032F02BC033F02CC034F02DC035F03C0E22
:10222000056EAA0E066E380E076E330E086E64C178
:1022300001F065C102F066C103F067C104F02DEC46
:102240001AF001C036F002C037F003C038F004C005
:1022500039F08AEC1EF0D8B0E5D0CA0E156EF20E39
:10226000166E490E176E710E186E88C111F089C175
:1022700012F08AC113F08BC114F084EC18F011C075
:10228000A4F112C0A5F113C0A6F114C0A7F1A4C116
:1022900011F0A5C112F0A6C113F0A7C114F0CA0E27
:1022A000156EF20E166E490E176E710E186E84ECD6
:1022B00018F011C06FF012C070F013C071F014C0AC
:1022C00072F01200FF0EAC15776EFF0EAD15786E32
:1022D000FF0EAE15796E7F0EAF157A6E7ABE3ED0C8
:1022E0007704000E7858160E7958430E7A58D8A005
:1022F00035D0600E156E420E166EA20E176E0D0EC4
:10230000186E88C111F089C112F08AC113F08BC117
:1023100014F084EC18F011C0A4F112C0A5F113C0A0
:10232000A6F114C0A7F1A4C111F0A5C112F0A6C175
:1023300013F0A7C114F0600E156E420E166EA20EB9
:10234000176E0D0E186E84EC18F011C06FF012C0ED
:1023500070F013C071F014C072F01200160EAE19B6
:1023600061E1C30EAF19AC11AD11D8A45BD09CC113
:102370002EF09DC12FF09EC130F09FC131F0B4C14D
:102380002AF0B5C12BF0B6C12CF0B7C12DF0A9ECE5
:102390001FF02AC032F02BC033F02CC034F02DC017
:1023A00035F064C136F065C137F066C138F067C1F9
:1023B00039F08AEC1EF0D8A035D0600E156E420EB2
:1023C000166EA20E176E0D0E186E88C111F089C11F
:1023D00012F08AC113F08BC114F084EC18F011C014
:1023E000A4F112C0A5F113C0A6F114C0A7F1A4C1B5
:1023F00011F0A5C112F0A6C113F0A7C114F0600E30
:10240000156E420E166EA20E176E0D0E186E84EC2F
:1024100018F011C06FF012C070F013C071F014C04A
:1024200072F01200FF0E0101AC152C6FFF0EAD15FE
:102430002D6FFF0EAE152E6F7F0EAF152F6F170E7F
:10244000776E2CC178F02DC179F02EC17AF02FC1B2
:102450007BF0776601D007D07B347B327A327932D9
:102460007832772EF6D7810E78240101A06FFF0E07
:102470007920A16FFF0E7A20A26FFF0E7B20A36F41
:10248000000E7C6F000E7D6F000E7E6F000E7F6F62
:102490002FBFD8D02C05000E2D59000E2E593F0EFF
:1024A0002F59D8A0CFD0A0C177F0010E7726000E0B
:1024B000786E000E796E800E7A6E000E7B6E7766F7
:1024C00001D007D07B347B327A3279327832772E62
:1024D000F6D70101AC5178247C6FAD5179207D6F26
:1024E000AE517A207E6FAF517B207F6F810E776E69
:1024F000FF0E786EFF0E796EFF0E7A6E170E7B6EF2
:102500007CC17CF07DC17DF07EC17EF07FC17FF01B
:102510007B6601D007D07F347F327E327D327C32C1
:102520007B2EF6D77C5077240101A06F000E782017
:10253000A16F000E7920A26F000E7A20A36FA0C1B8
:1025400077F0FF0E786EFF0E796E7F0E7A6E000EBA
:102550007B6E776601D007D07B347B327A3279325A
:102560007832772EF6D7781C7C6E791C7D6E7A1CBB
:102570007E6E7B1C7F6E01017C517C14B86F7D5197
:102580007D14B96F7E517E14BA6F7F517F14BB6F7B
:10259000B8C1B0F1B9C1B1F1BAC1B2F1BBC1B3F1C7
:1025A000A0511708776EFF0E7C15786EFF0E7D1513
:1025B000796E7F0E7E157A6E000E7F157B6E000E93
:1025C00078107C6E000E79107D6E800E7A107E6E13
:1025D000000E7B107F6E776601D007D07F347F328C
:1025E0007E327D327C32772EF6D77CC07CF17DC086
:1025F0007DF17EC07EF17FC07FF10101AFAF08D0D9
:102600007F1F7E1F7D1F7C6D000E7D237E237F2319
:102610009CC12AF09DC12BF09EC12CF09FC12DF0D2
:10262000B0C12EF0B1C12FF0B2C130F0B3C131F062
:10263000A9EC1FF02AC09CF12BC09DF12CC09EF18B
:102640002DC09FF164C101F065C102F066C103F0C5
:1026500067C104F09CC105F09DC106F09EC107F062
:102660009FC108F02DEC1AF001C0B0F102C0B1F129
:1026700003C0B2F104C0B3F1B0C1B8F1B1C1B9F156
:10268000B2C1BAF1B3C1BBF1B8C190F1B9C191F116
:10269000BAC192F1BBC193F1000E01019015B86F60
:1026A000800E9115B96FFF0E9215BA6FFF0E93153C
:1026B000BB6FB8C1B0F1B9C1B1F1BAC1B2F1BBC120
:1026C000B3F1B0C111F0B1C112F0B2C113F0B3C196
:1026D00014F0000E156E720E166E310E176E3F0E50
:1026E000186E84EC18F011C074F112C075F113C0AB
:1026F00076F114C077F19CC12EF09DC12FF09EC1E0
:1027000030F09FC131F0B0C12AF0B1C12BF0B2C19D
:102710002CF0B3C12DF0A9EC1FF02AC094F12BC00E
:1027200095F12CC096F12DC097F1180E156E720E12
:10273000166E310E176E3F0E186E94C12EF095C1B5
:102740002FF096C130F097C131F064C12AF065C115
:102750002BF066C12CF067C12DF0A9EC1FF02AC048
:1027600011F02BC012F02CC013F02DC014F084EC2B
:1027700018F011C014F112C015F113C016F114C0F5
:1027800017F114C101F015C102F016C103F017C111
:1027900004F08C0E156EBE0E166EBF0E176E350E43
:1027A000186EB0C111F0B1C112F0B2C113F0B3C1D3
:1027B00014F084EC18F011C005F012C006F013C03C
:1027C00007F014C008F02DEC1AF001C078F102C037
:1027D00079F103C07AF104C07BF174C101F075C1D5
:1027E00002F076C103F077C104F078C105F079C139
:1027F00006F07AC107F07BC108F02DEC1AF001C099
:10280000B4F102C0B5F103C0B6F104C0B7F174C1B0
:102810002EF075C12FF076C130F077C131F0B4C120
:102820002AF0B5C12BF0B6C12CF0B7C12DF0A9EC40
:102830001FF02AC094F12BC095F12CC096F12DC049
:1028400097F178C12AF079C12BF07AC12CF07BC1C5
:102850002DF094C12EF095C12FF096C130F097C1A4
:1028600031F0A9EC1FF02AC044F12BC045F12CC077
:1028700046F12DC047F1B4C111F0B5C112F0B6C197
:1028800013F0B7C114F0B4C115F0B5C116F0B6C15C
:1028900017F0B7C118F084EC18F011C0B0F112C0F5
:1028A000B1F113C0B2F114C0B3F10E0E056EEA0E11
:1028B000066EDD0E076EB50E086E4C0E156EBB0E65
:1028C000166E310E176E330E186EB0C111F0B1C115
:1028D00012F0B2C113F0B3C114F084EC18F011C0BF
:1028E00001F012C002F013C003F014C004F02DEC8C
:1028F0001AF001C0A4F102C0A5F103C0A6F104C002
:10290000A7F1550E056EB30E066E8A0E076E380ED1
:10291000086EB0C115F0B1C116F0B2C117F0B3C165
:1029200018F0A4C111F0A5C112F0A6C113F0A7C1FF
:1029300014F084EC18F011C001F012C002F013C0C2
:1029400003F014C004F02DEC1AF001C054F102C0E1
:1029500055F103C056F104C057F1610E056E0B0E20
:10296000066E360E076EBB0E086EB0C115F0B1C113
:1029700016F0B2C117F0B3C118F054C111F055C12F
:1029800012F056C113F057C114F084EC18F011C0C6
:1029900001F012C002F013C003F014C004F02DECDB
:1029A0001AF001C048F102C049F103C04AF104C065
:1029B0004BF1AB0E056EAA0E066E2A0E076E3E0E8A
:1029C000086EB0C115F0B1C116F0B2C117F0B3C1B5
:1029D00018F048C111F049C112F04AC113F04BC1BF
:1029E00014F084EC18F011C001F012C002F013C012
:1029F00003F014C004F02DEC1AF001C038F102C04D
:102A000039F103C03AF104C03BF1B4C12AF0B5C1B9
:102A10002BF0B6C12CF0B7C12DF0B0C115F0B1C18B
:102A200016F0B2C117F0B3C118F038C111F039C1B6
:102A300012F03AC113F03BC114F084EC18F011C04D
:102A40002EF012C02FF013C030F014C031F0A9ECFA
:102A50001FF02AC080F12BC081F12CC082F12DC063
:102A600083F1000E056E000E066E000E076EC00E9E
:102A7000086E80C101F081C102F082C103F083C100
:102A800004F02DEC1AF001C036F002C037F003C09C
:102A900038F004C039F080C115F081C116F082C150
:102AA00017F083C118F0B4C111F0B5C112F0B6C16E
:102AB00013F0B7C114F084EC18F011C032F012C05A
:102AC00033F013C034F014C035F0B3EC1BF032C057
:102AD0003CF133C03DF134C03EF135C03FF144C15B
:102AE00005F045C106F046C107F047C108F044C1F2
:102AF00015F045C116F046C117F047C118F0B4C132
:102B000011F0B5C112F0B6C113F0B7C114F084ECE6
:102B100018F011C001F012C002F013C003F014C08D
:102B200004F02DEC1AF001C018F102C019F103C035
:102B30001AF104C01BF13CC12AF03DC12BF03EC18B
:102B40002CF03FC12DF018C12EF019C12FF01AC181
:102B500030F01BC131F0A9EC1FF02AC04CF12BC0A2
:102B60004DF12CC04EF12DC04FF1B4C12EF0B5C1C6
:102B70002FF0B6C130F0B7C131F04CC12AF04DC1D1
:102B80002BF04EC12CF04FC12DF0A9EC1FF02AC044
:102B900094F12BC095F12CC096F12DC097F1000E49
:102BA0002A6E000E2B6E800E2C6E3F0E2D6E94C181
:102BB0002EF095C12FF096C130F097C131F0A9ECFD
:102BC0001FF02AC0B4F12BC0B5F12CC0B6F12DC056
:102BD000B7F1B4C1B8F1B5C1B9F1B6C1BAF1B7C175
:102BE000BBF1B8C1ACF1B9C1ADF1BAC1AEF1BBC175
:102BF000AFF17CC177F07DC178F07EC179F07FC103
:102C00007AF0170ED8907736783679367A36E82EFD
:102C1000F9D777500101AC277850AD237950AE2316
:102C20007A50AF23170E776EACC178F0ADC179F052
:102C3000AEC17AF0AFC17BF0776601D007D07B34AC
:102C40007B327A3279327832772EF6D77BBE07D054
:102C50007B507A1079101AE17804D8B017D0B4C13B
:102C60002AF0B5C12BF0B6C12CF0B7C12DF07CC154
:102C70002EF07DC12FF0F7EC1CF02AC0B4F12BC070
:102C8000B5F12CC0B6F12DC0B7F110D0ACC1B8F180
:102C9000ADC1B9F1AEC1BAF1AFC1BBF1B8C1B4F1C8
:102CA000B9C1B5F1BAC1B6F1BBC1B7F188C111F074
:102CB00089C112F08AC113F08BC114F0B4C115F0B0
:102CC000B5C116F0B6C117F0B7C118F084EC18F012
:102CD00011C06FF012C070F013C071F014C072F028
:102CE00012003EC053F03FC054F040C055F041C008
:102CF00056F053C06BF054C06CF055C06DF056C028
:102D00006EF0000E6B14426E000E6C14436E800E5B
:102D10006D14446E7F0E6E14456E800E441833E1C0
:102D20007F0E451842104310D8A42DD03EC015F098
:102D30003FC016F040C017F041C018F03EC011F07F
:102D40003FC012F040C013F041C014F084EC18F002
:102D500011C001F012C002F013C003F014C004F05F
:102D60003EC005F03FC006F040C007F041C008F08B
:102D70002DEC1AF001C03EF002C03FF003C040F05D
:102D800004C041F012006EBE07D06E506D106C1082
:102D900034E16B04D8B031D0FF0E6B14426EFF0EDD
:102DA0006C14436EFF0E6D14446E7F0E6E14456EF0
:102DB0004250431044104510D8A409D03EC03EF004
:102DC0003FC03FF040C040F041C041F012006EAE45
:102DD00014D0000E0001976F210E966F7D0E016ECC
:102DE000060E026EFDEC1FF001C03EF002C03FF087
:102DF00003C040F004C041F01200170E426E6BC0D9
:102E000043F06CC044F06DC045F06EC046F04266C1
:102E100001D007D046344632453244324332422E46
:102E2000F6D743C063F044C064F045C065F046C0C7
:102E300066F06350641065106610D8A42AD0000EA6
:102E40004F6E000E506E000E516E000E526E0BD083
:102E5000D8906B366C366D366E36010E4F26000EEE
:102E60005022512252226DAEF3D7FF0E4F24426EF4
:102E7000FF0E5020436EFF0E5120446EFF0E522075
:102E8000456E4250635E4350645A4450655A455003
:102E9000665A810E6326FF0E6422FF0E6522FF0E26
:102EA0006622FF0E6B14426EFF0E6C14436E7F0E93
:102EB0006D14446E000E6E14456E000E42106B6E63
:102EC000000E43106C6E800E44106D6E000E4510A7
:102ED0006E6E63A008D06B506B266C506C226D50E8
:102EE0006D226E506E226634663265326432633211
:102EF0006B506B266C506C226D506D226E506E22A2
:102F0000000E4B6E000E4C6E000E4D6E000E4E6E9F
:102F10004BC057F04CC058F04DC059F04EC05AF05D
:102F2000000E676E000E686E000E696E010E6A6E0E
:102F300043D067504B245B6E68504C205C6E6950E8
:102F40004D205D6E6A504E205E6E5B506B5C5C5037
:102F50006C585D506D586E50800A426E5E50800A0B
:102F60004258D8A01CD067505B244B6E68505C2040
:102F70004C6E69505D204D6E6A505E204E6E5B5007
:102F80006B5E5C506C5A5D506D5A5E506E5A675065
:102F9000572668505822695059226A505A226B505D
:102FA0006B266C506C226D506D226E506E22D89044
:102FB0006A326932683267326750681069106A1085
:102FC000D8A4B7D76B506C106D106E10D8B452D017
:102FD000000E5F6E000E606E800E616E3F0E626EC0
:102FE0005FC032F060C033F061C034F062C035F0D1
:102FF000000E366E000E376E800E386E3F0E396E44
:103000008AEC1EF0D8A036D0000E5F6E000E606E07
:10301000800E616E3F0E626E000E326E000E336ED9
:10302000800E346E3F0E356E5FC036F060C037F0F4
:1030300061C038F062C039F08AEC1EF0D8B006D01A
:10304000020E5726000E5822592213D0010E571493
:10305000426E000E5814436E000E5914446E000E5A
:103060005A14456E42505726435058224450592214
:1030700045505A2257C042F058C043F059C044F05E
:103080005AC045F045344532443243324232000E94
:1030900042246B6E000E43206C6E000E44206D6E59
:1030A0003F0E45206E6E63C042F064C043F065C0C1
:1030B00044F066C045F0170ED89042364336443689
:1030C0004536E82EF9D742506B2643506C224450C7
:1030D0006D2245506E226BC053F06CC054F06DC031
:1030E00055F06EC056F053C05FF054C060F055C04C
:1030F00061F056C062F05FC03EF060C03FF061C05A
:1031000040F062C041F012001450800B1D6E14504C
:103110001424236E13BE23802350D8B40DD023284B
:10312000D8A408D0000E116E000E126E000E136EA1
:10313000000E146E138E08D0000E116E000E126E6B
:10314000000E136E000E146E1850800B1D1A1850CE
:103150001824226E17BE22802250D8B40DD0222807
:10316000D8A408D0000E156E000E166E000E176E55
:10317000000E186E178E08D0000E156E000E166E1B
:10318000000E176E000E186E2250D8B403D02350D4
:10319000D8A409D0000E116E000E126E000E136E30
:1031A000000E146E120017501102F3CF28F0F4CF66
:1031B00029F028501E6E1F6A206A216A2950246E49
:1031C000256A266A276A16501202F3CF28F0F4CF38
:1031D00029F028501E26000E1F22202221222950CD
:1031E0002426000E25222622272215501302F3CF73
:1031F00028F0F4CF29F028501E26000E1F2220228E
:10320000212229502426000E25222622272220C0F2
:1032100021F01FC020F01EC01FF01E6A15501202C0
:10322000F3CF28F0F4CF29F028501E2629501F2272
:10323000000E2022000E212216501102F3CF28F09A
:10324000F4CF29F028501E2629501F22000E2022DC
:10325000000E212220C021F01FC020F01EC01FF050
:103260001E6A15501102F3CF28F0F4CF29F0285030
:103270001E2629501F22000E2022000E2122175048
:103280001202F3CF28F0F4CF29F028502426295039
:103290002522000E2622000E272216501302F3CFFD
:1032A00028F0F4CF29F02850242629502522000E9A
:1032B0002622000E272217501302F3CF28F0F4CF56
:1032C00029F02850196E29501A6E1B6A1C6A1BC0FF
:1032D0001CF01AC01BF019C01AF0196A19502426E4
:1032E0001A5025221B5026221C5027221EC019F0DE
:1032F0001FC01AF020C01BF021C01CF0190E05D011
:10330000D8901C321B321A321932E82EF9D71950D4
:1033100024261A5025221B5026221C50272220C06A
:1033200021F01FC020F01EC01FF01E6A225023C0D3
:1033300019F01A6A1926000E1A22820E1924286E14
:10334000FF0E1A20296E0FD0D89024362536263647
:10335000273621BE2480D8901E361F3620362136CF
:103360002806D8A0290626AEEFD7000E226E21AE81
:1033700017D0FF0E1E14196EFF0E1F141A6EFF0ECB
:1033800020141B6E7F0E21141C6E19501A101B1076
:103390001C10D8B403D0010E226E02D024B0FBD78B
:1033A0002250D8B41FD0010E2426000E252226223A
:1033B000272227A017D024C019F025C01AF026C054
:1033C0001BF027C01CF01C341C321B321A3219327D
:1033D00019C024F01AC025F01BC026F01CC027F02D
:1033E000284A292A29BE0DD0295003E12828D8A02F
:1033F00008D0000E246E000E256E800E266E7F0E05
:1034000020D029BE05D029500EE12804D8B00BD019
:10341000000E246E000E256E000E266E000E276E26
:10342000000E1D6E0FD028C023F0FF0E2416FF0ED5
:1034300025167F0E2616000E271623B0268ED8904E
:103440002330276E1D50271224C011F025C012F022
:1034500026C013F027C014F012000450800B0D6E2C
:10346000045004240F6E03BE0F800F50D8B40DD04B
:103470000F28D8A408D0000E016E000E026E000EB8
:10348000036E000E046E038E06D0000E016E000E59
:10349000026E000E036E000E046E0850800B0E6E5E
:1034A0000D500E18D8A40D8C085008240E6E07BEBF
:1034B0000E800E50D8B40DD00E28D8A408D0000E1F
:1034C000056E000E066E000E076E000E086E078E6B
:1034D00006D0000E056E000E066E000E076E000E82
:1034E000086E0F500E5CD8B022D00DAC02D0800E0A
:1034F0000D1A0FC010F00EC00FF010C00EF001C07A
:1035000010F005C001F010C005F002C010F006C0B8
:1035100002F010C006F003C010F007C003F010C0A6
:1035200007F004C010F008C004F010C008F0000E4E
:10353000106E0F500EC009F00A6A095E000E0A5A9A
:103540000ABE2CD00A5004E11A0E095CD8A026D07D
:103550000150021003100410D8B402D0010E01D0A3
:10356000000E106E000E016E000E026E000E036E55
:10357000000E046E0EC00FF015D010A005D0D8902C
:1035800010300109106E02D0D890103201B0108EA8
:10359000043404320332023201320F2A0E500F5C1F
:1035A000D8A0EBD70DBC28D00F50D8A409D0000E5E
:1035B000016E000E026E000E036E000E046E12000D
:1035C000055001260650022207500322085004220B
:1035D00004A071D010A005D0D89010300109106E51
:1035E00002D0D890103201B0108E0434043203326D
:1035F000023201320F2A5FD00550015C065002589A
:10360000075003580450800A096E0850800A095870
:10361000D8B025D00150055C096E025006580A6EDC
:10362000035007580B6E045008580C6EFF0E092407
:10363000016EFF0E0A20026EFF0E0B20036EFF0EBE
:103640000C20046E800E0D1A106C1050D8A40FD0F0
:10365000010E0126000E02220322042208D005508A
:10366000015E0650025A0750035A0850045A01508E
:10367000021003100410D8A41CD01050D8A419D0E4
:10368000000E016E000E026E000E036E000E046E40
:103690001200D890013602360336043610BE01807F
:1036A00010A002D0D88001D0D89010360F50D8A4E6
:1036B0000F0603AEEED7000E0E6E10AE0BD010C08C
:1036C00009F07F0E0916D8B403D0010E0E6E02D099
:1036D00001B0FBD70E50D8B420D0010E0126000E49
:1036E00002220322042204A018D001C009F002C063
:1036F0000AF003C00BF004C00CF00C340C320B3297
:103700000A32093209C001F00AC002F00BC003F00E
:103710000CC004F00F28D8A40F2A0F28D8B403D067
:103720000F50D8A40DD0000E016E000E026E000ED8
:10373000036E000E046E0F50D8A402D0000E0D6E62
:103740000FA002D0038E01D0039ED8900F30046EDC
:103750000DBE048E01C001F002C002F003C003F0F0
:1037600004C004F012003550800B426E35503524F1
:10377000496E34BE49804950D8B40DD04928D8A4E8
:1037800008D0000E326E000E336E000E346E000E46
:10379000356E348E06D0000E326E000E336E000E83
:1037A000346E000E356E3950800B421A3950392470
:1037B0004A6E38BE4A804A50D8B40DD04A28D8A4A0
:1037C00008D0000E366E000E376E000E386E000EFA
:1037D000396E388E06D0000E366E000E376E000E33
:1037E000386E000E396E3650371038103910D8A4A4
:1037F00017D0000E326E000E336E000E346E000EC7
:10380000356E800E34127F0E35124250351232C0A2
:1038100032F033C033F034C034F035C035F012002C
:103820004950D8A409D0000E326E000E336E000E3F
:10383000346E000E356E12004A5049C03AF03B6AB1
:103840003A5E000E3B5A7F0E3A24436E000E3B2038
:10385000446E32C03EF033C03FF034C040F035C05B
:1038600041F0000E326E000E336E000E346E000E0C
:10387000356E000E456E000E466E000E476E000E51
:10388000486E000E4A6E28D04A50D8B411D0D89055
:103890003E363F3640364136D890323633363436AF
:1038A000353648BE3280D89045364636473648369B
:1038B00036503E5C37503F58385040583950415888
:1038C000D8A009D0488C36503E5E37503F5A385009
:1038D000405A3950415A4A2A190E4A64D5D73E50A7
:1038E0003F1040104110D8B411D045800FD0D8906F
:1038F000323633363436353648BE3280D890453687
:103900004636473648364306D8A0440634AEEFD78D
:10391000000E4A6E48AE17D0FF0E45143A6EFF0EE9
:1039200046143B6EFF0E47143C6E7F0E48143D6EEE
:103930003A503B103C103D10D8B403D0010E4A6EF3
:1039400002D032B0FBD74A50D8B41FD0010E322675
:10395000000E33223422352235A017D032C03AF07F
:1039600033C03BF034C03CF035C03DF03D343D3217
:103970003C323B323A323AC032F03BC033F03CC0CA
:1039800034F03DC035F0434A442A44BE10D0445080
:1039900003E14328D8A00BD0000E446E4368000E0C
:1039A000326E000E336E000E346E000E356E44BE65
:1039B00005D0445011E14304D8B00ED0000E446E3F
:1039C000000E436E000E326E000E336E000E346E2B
:1039D000000E356E000E426E43C049F049A002D081
:1039E000348E01D0349ED8904930356E0ED72AC01F
:1039F00038F02BC039F02CC03AF02DC03BF02FBE70
:103A000056D02F5004E1800E2E5CD8A050D038C084
:103A100011F039C012F03AC013F03BC014F0000EA0
:103A2000156E000E166E000E176E7F0E186E84EC6B
:103A300018F011C038F012C039F013C03AF014C0B9
:103A40003BF0810E2E26FF0E2F222FBE88D02F5046
:103A500004E1800E2E5CD8A082D038C011F039C0AD
:103A600012F03AC013F03BC014F0000E156E000EB9
:103A7000166E000E176E7F0E186E84EC18F011C0D3
:103A800038F012C039F013C03AF014C03BF0810E88
:103A90002E26FF0E2F222FBE62D02F5004E1800E63
:103AA0002E5CD8A05CD0000E2F6E7F0E57D02FAEAC
:103AB00056D0820E2E5CFF0E2F58D8B050D038C092
:103AC00011F039C012F03AC013F03BC014F0000EF0
:103AD000156E000E166E800E176E0C0E186E84ECAE
:103AE00018F011C038F012C039F013C03AF014C009
:103AF0003BF0660E2E26000E2F222FAE30D0820E07
:103B00002E5CFF0E2F58D8B02AD038C011F039C023
:103B100012F03AC013F03BC014F0000E156E000E08
:103B2000166E800E176E0C0E186E84EC18F011C015
:103B300038F012C039F013C03AF014C03BF0660EF2
:103B40002E26000E2F222FAE0AD0820E2E5CFF0EE4
:103B50002F58D8B004D0FF0E2F6E820E2E6E7F0E1F
:103B60002E24306E000E2F20316E326A336A170E0B
:103B7000D8903036313632363336E82EF9D730C069
:103B800034F031C035F032C036F033C037F034C0D5
:103B900011F035C012F036C013F037C014F038C041
:103BA00015F039C016F03AC017F03BC018F084EC9D
:103BB00018F011C02AF012C02BF013C02CF014C062
:103BC0002DF02AC02AF02BC02BF02CC02CF02DC0D9
:103BD0002DF01200096E0950D8A404AE1AD001C00D
:103BE00005F002C006F003C007F004C008F0051E8F
:103BF000061E071E081E052A000E0622072208229E
:103C000005C00BF006C00CF007C00DF008C00EF0A8
:103C100008D001C00BF002C00CF003C00DF004C0CE
:103C20000EF00150021003100410D8A409D0000EA9
:103C3000016E000E026E000E036E000E046E120086
:103C4000960E0A6E06D00A2AD8900E320D320C3229
:103C50000B32000E0B14056E000E0C14066E000ED7
:103C60000D14076EFE0E0E14086E05500610071098
:103C70000810D8B40DD0E7D70A2A010E0B26000E83
:103C80000C220D220E22D8900E320D320C320B3245
:103C9000000E0B14056E000E0C14066E000E0D14B3
:103CA000076EFF0E0E14086E055006100710081060
:103CB000D8B407D0E1D70A06D8900B360C360D36AB
:103CC0000E360DBE03D0020E0A60F5D70AA00D9E77
:103CD000D8900A320AC005F0066A076A086A05C069
:103CE00008F0076A066A056A05500B1206500C12A6
:103CF00007500D1208500E120950D8A404AE01D07E
:103D00000E8E0BC001F00CC002F00DC003F00EC00F
:103D100004F01200000E32143A6E000E33143B6EA3
:103D2000800E34143C6E7F0E35143D6E3A503B10BD
:103D30003C103D10D8A408D0000E326E000E336E39
:103D4000000E346E000E356E000E36143A6E000E04
:103D500037143B6E800E38143C6E7F0E39143D6E66
:103D60003A503B103C103D10D8A408D0000E366EDF
:103D7000000E376E000E386E000E396E35AE09D06B
:103D8000326C331ED8B0332A341ED8B0342A800E99
:103D9000355639AE09D0366C371ED8B0372A381EA2
:103DA000D8B0382A800E3956000E321A000E331A57
:103DB000000E341A800E351A000E361A000E371A0D
:103DC000000E381A800E391A3650325C375033588C
:103DD0003850345839503558D8B002D0D8901200E5
:103DE000D8801200000182358335896F8951D8A4AB
:103DF00009D0000E806F000E816F000E826F000EE2
:103E0000836F120080C084F081C085F082C086F08C
:103E100083C087F0200E05D0D89087338633853352
:103E20008433E82EF9D78451886F828FFF0E801774
:103E3000FF0E8117FF0E8217000E8317960E895F03
:103E400089AF0DD08951800A970FD8A0D2D7D890CA
:103E50008333823381338033893FF9D70DD01F0EEE
:103E6000896507D0C6D7D8908037813782378337A6
:103E700089078951D8A4F7D78851D8B408D0831FAF
:103E8000821F811F806D000E81238223832380C0C7
:103E900080F081C081F082C082F083C083F0120084
:103EA000000E956E000E936E000E836E000E816EF6
:103EB000000E0001916F000E906F90C001F091C054
:103EC00002F0000E02BEFF0E036E046E010EEAEC5D
:103ED0001DF001C08CF002C08DF003C08EF004C054
:103EE0008FF08CC073F08DC074F08EC075F08FC0F1
:103EF00076F0000E6F6E000E706E000E716E400E4A
:103F0000726E40EC03F06FC080F070C081F071C041
:103F100082F072C083F0F2EC1EF000018051836EDB
:103F2000030E00018B6F8A0E8A6F550EE82EFED7A6
:103F30008A2FFCD78B2FFAD700D00001904B912B02
:103F400091BFBBD79151B4E1080E905DD8B0B0D706
:103F5000B4D7000E2E1A000E2F1A000E301A800E43
:103F6000311A2AC001F02BC002F02CC003F02DC082
:103F700004F02EC005F02FC006F030C007F031C0AD
:103F800008F02DEC1AF001C02AF002C02BF003C09B
:103F90002CF004C02DF0120092C005F093C006F082
:103FA00094C007F095C008F001C005F002C006F00B
:103FB00003C007F004C008F0089E05C001F006C069
:103FC00002F007C003F008C004F012000150021014
:103FD00003100410D8B408D0000E011A000E021A03
:103FE000000E031A800E041A01C001F002C002F094
:103FF00003C003F004C004F01200FF0E056EFF0EB4
:10400000066EFF0E076E7F0E086E05C001F006C03B
:1040100002F007C003F008C004F012000001976B23
:10402000966B956B946B936B926B000EF86E060E0D
:08403000F76E000150EF1FF0D4
:020000040020DA
:08000000FFFFFFFFFFFFFFFF00
:020000040030CA
:0E000000FF021F1EFF8385FF0FC00FE00F40A1
:00000001FF
