:020000040000FA
:0400000093EF3FF04B
:107F2000020E826E12000001B2EF3FF0000E816E71
:107F3000020E826E000E836E000E936E000E946E23
:107F4000000E956E1200030E826E020E026E860EF9
:107F5000016E990EE82EFED7012EFCD7022EFAD71D
:107F600000F0120096EC3FF0A3EC3FF0000E026E22
:107F70000C0E016ED2EC3FF090EC3FF0C1EC3FF004
:107F8000F1D7000E826E020E026E860E016E990E01
:107F9000E82EFED7012EFCD7022EFAD700F0020EF3
:107FA000826E1200000E066E000E056E1ED005C019
:107FB00081FF020E046E860E036E990EE82EFED728
:107FC000032EFCD7042EFAD700F0000E816E020EAD
:107FD000046E860E036E990EE82EFED7032EFCD794
:107FE000042EFAD700F0054A062A0150055C065017
:107FF000800A036E0250800A0358D8B01200D7D707
:020000040020DA
:08000000FFFFFFFFFFFFFFFF00
:020000040030CA
:0E000000FF021F1EFF8385FF0FC00FE00F40A1
:00000001FF
