:020000040000FA
:04000000F4EF20F009
:100600000000000000DCCFD1350000000000C01564
:100610003F6042A20D70A5EC363BAAB83F4F38763A
:100620003F3CAA38338CBEBF350072313F1872315F
:100630003F4CBB31330EEADDB555B38A38610B361A
:10064000BBABAA2A3E42F1533E55326C3E05A38B0A
:100650003EABAAAA3EB76DDB3E9A99193F6042A213
:100660000DCAF249710000804B0000803F0000C0BD
:0F0670003F00AAB83FC623F6B80040763F00000F
:1006800080C0B8F181C0B9F182C0BAF183C0BBF1BA
:10069000B8C160F1B9C161F1BAC162F1BBC163F126
:1006A00084C0B8F185C0B9F186C0BAF187C0BBF18A
:1006B000B8C184F1B9C185F1BAC186F1BBC187F176
:1006C000FF0E01016015A86FFF0E6115A96FFF0EE7
:1006D0006215AA6F7F0E6315AB6FFF0E8415986FBE
:1006E000FF0E8515996FFF0E86159A6F7F0E871581
:1006F0009B6F985199119A119B11D8A40AD0000EA2
:100700000001806F000E816F800E826F3F0E836F3D
:100710001200800E621910E13F0E63196011611121
:10072000D8A40AD0000E0001806F000E816F800EE9
:10073000826F3F0E836F1200ABBF09D0A805000E79
:10074000A959800EAA597F0EAB59D8B00BD09BBFC8
:1007500024D09805000E9959800E9A597F0E9B5906
:10076000D8A01BD080C00FF081C010F082C011F063
:1007700083C012F084C013F085C014F086C015F059
:1007800087C016F0C7EC1AF00FC080F010C081F0DF
:1007900011C082F012C083F01200000E506F000EE4
:1007A000516F000E526F000E536F63AFB1D09BBFFD
:1007B0000ED0800E9A5D4B0E9B59D8A008D0020E29
:1007C000506F000E516F000E526F000EA0D09BBFF5
:1007D0009FD0800E9A5D3F0E9B59D8A099D0170EDE
:1007E0000001886F98C189F099C18AF09AC18BF095
:1007F0009BC18CF0886701D007D08C358C338B334C
:100800008A338933882FF6D7810E000189250101AB
:10081000A06FFF0E00018A210101A16FFF0E0001F0
:100820008B210101A26FFF0E00018C210101A36F3A
:10083000A05117080001886F98C189F099C18AF00A
:100840009AC18BF09BC18CF0886701D007D08C35A2
:100850008C338B338A338933882FF6D789C0ACF138
:100860008AC0ADF18BC0AEF18CC0AFF10101A051D7
:1008700017080001886FACC189F0ADC18AF0AEC124
:100880008BF0AFC18CF0882B05D0D89089378A3790
:100890008B378C37882FF9D70101985100018919BE
:1008A00037E10101995100018A1932E101019A51A0
:1008B00000018B192DE101019B5100018C19D8A475
:1008C00027D0010E0101AC150001886F000E010157
:1008D000AD150001896F000E0101AE1500018A6F90
:1008E000000E0101AF1500018B6F88510208010154
:1008F000506F000E000189550101516F000E00017B
:100900008A550101526F000E00018B550101536F92
:10091000800E01019A1958E17F0E9B1998119911C7
:10092000D8A452D0800EAA1910E13F0EAB19A8111D
:10093000A911D8A40AD0000E0001806F000E816FAB
:10094000800E826F3F0E836F1200ABBF1ED0A805D2
:10095000000EA959800EAA593F0EAB59D8A015D048
:1009600087AF0AD0000E0001806F000E816F000E6D
:10097000826F000E836F120084C080F085C081F00A
:1009800086C082F087C083F0120087AF13D084C086
:1009900001F085C002F086C003F087C004F0CCEC03
:1009A00020F001C080F002C081F003C082F004C0DA
:1009B00083F01200000E0001806F000E816F000EA8
:1009C000826F000E836F1200800E9A192CE13F0E89
:1009D0009B1998119911D8A426D087AF1BD0000E6F
:1009E000406E000E416E800E426E3F0E436E80C020
:1009F00044F081C045F082C046F083C047F04DEC22
:100A00001CF040C080F041C081F042C082F043C081
:100A100083F0120080C080F081C081F082C082F03B
:100A200083C083F01200400E87198411851186114E
:100A3000D8A41BD080C01FF081C020F082C021F05C
:100A400083C022F080C023F081C024F082C025F052
:100A500083C026F01EEC19F01FC080F020C081F08A
:100A600021C082F022C083F012003F0E871984114A
:100A700085118611D8B463BF13D080C04CF081C0FB
:100A80004DF082C04EF083C04FF00BEC17F04CC01D
:100A900080F04DC081F04EC082F04FC083F0120054
:100AA00080C001F081C002F082C003F083C004F076
:100AB000B2EC20F001C070F102C071F103C072F11C
:100AC00004C073F1800E0101AA1906E17F0EAB1973
:100AD000A811A911D8B40FD0A851A911AA11AB110E
:100AE000D8B409D0800EAA1905E13F0EAB19A811A0
:100AF000A911D8A4B5D070C1B4F171C1B5F172C15A
:100B0000B6F173C1B7F187AF1AD0000E406E000E78
:100B1000416E800E426E3F0E436EB4C144F0B5C1CB
:100B200045F0B6C146F0B7C147F04DEC1CF040C0EF
:100B3000B4F141C0B5F142C0B6F143C0B7F1010113
:100B400063AF85D0000EA8250001886F000E01015B
:100B5000A9210001896F800E0101AA2100018A6F7D
:100B6000C00E0101AB2100018B6F0101505100014A
:100B700088118C6F01015151000189118D6F0101A4
:100B8000525100018A118E6F0101535100018B11E6
:100B90008F6F8C518D118E118F11D8A43FD0B4C19D
:100BA0003CF0B5C13DF0B6C13EF0B7C13FF0B4C1B5
:100BB00038F0B5C139F0B6C13AF0B7C13BF08FECAF
:100BC00020F038C040F039C041F03AC042F03BC09C
:100BD00043F0B4C13CF0B5C13DF0B6C13EF0B7C181
:100BE0003FF0B4C138F0B5C139F0B6C13AF0B7C181
:100BF0003BF08FEC20F038C044F039C045F03AC0EB
:100C000046F03BC047F04DEC1CF040C0B4F141C091
:100C1000B5F142C0B6F143C0B7F119D0010150059A
:100C2000511152115311D8A412D0B4C101F0B5C161
:100C300002F0B6C103F0B7C104F0CCEC20F001C063
:100C4000B4F102C0B5F103C0B6F104C0B7F1B4C14C
:100C500080F0B5C181F0B6C182F0B7C183F0120057
:100C6000000E886F000E896F800E8A6F3F0E8B6FAB
:100C700063AF53D05051511152115311D8A43FD0EA
:100C800080C03CF081C03DF082C03EF083C03FF0A8
:100C900080C038F081C039F082C03AF083C03BF0A8
:100CA0008FEC20F038C040F039C041F03AC042F03B
:100CB0003BC043F080C03CF081C03DF082C03EF0BC
:100CC00083C03FF080C038F081C039F082C03AF074
:100CD00083C03BF08FEC20F038C044F039C045F0C1
:100CE0003AC046F03BC047F04DEC1CF040C080F0ED
:100CF00041C081F042C082F043C083F01200500531
:100D0000511152115311D8A408D0000E886F000E53
:100D1000896F800E8A6FBF0E8B6F9BBF6BD2980559
:100D2000000E9959000E9A594D0E9B59D8A062D2C7
:100D3000ABBF0AD0F80EA85DFF0EA9597F0EAA59C5
:100D40003F0EAB59D8B06CD087BF35D0600E236E44
:100D5000420E246EA20E256E0D0E266E88C11FF067
:100D600089C120F08AC121F08BC122F01EEC19F05C
:100D70001FC0A4F120C0A5F121C0A6F122C0A7F197
:100D8000A4C11FF0A5C120F0A6C121F0A7C122F087
:100D9000600E236E420E246EA20E256E0D0E266E80
:100DA0001EEC19F01FC080F020C081F021C082F03D
:100DB00022C083F01200CA0E236EF20E246E490E7A
:100DC000256E710E266E88C11FF089C120F08AC180
:100DD00021F08BC122F01EEC19F01FC0A4F120C03D
:100DE000A5F121C0A6F122C0A7F1A4C11FF0A5C1A1
:100DF00020F0A6C121F0A7C122F0CA0E236EF20E88
:100E0000246E490E256E710E266E1EEC19F01FC061
:100E100080F020C081F021C082F022C083F0120057
:100E2000ABBF7DD0080EA85D000EA959800EAA594F
:100E30003F0EAB59D8A073D087BF07D0875186111A
:100E4000851138E18405D8B035D0600E236E420E8E
:100E5000246EA20E256E0D0E266E88C11FF089C16C
:100E600020F08AC121F08BC122F01EEC19F01FC0C6
:100E7000A4F120C0A5F121C0A6F122C0A7F1A4C110
:100E80001FF0A5C120F0A6C121F0A7C122F0600E7D
:100E9000236E420E246EA20E256E0D0E266E1EECE3
:100EA00019F01FC080F020C081F021C082F022C064
:100EB00083F01200CA0E236EF20E246E490E256EC8
:100EC000710E266E88C11FF089C120F08AC121F001
:100ED0008BC122F01EEC19F01FC0A4F120C0A5F1B7
:100EE00021C0A6F122C0A7F1A4C11FF0A5C120F026
:100EF000A6C121F0A7C122F0CA0E236EF20E246E05
:100F0000490E256E710E266E1EEC19F01FC080F082
:100F100020C081F021C082F022C083F0120070C195
:100F20000FF071C110F072C111F073C112F0000E18
:100F3000136E000E146E800E156EBF0E166EC7EC8B
:100F40001AF00FC0B0F110C0B1F111C0B2F112C06F
:100F5000B3F1000E236E000E246E800E256E3E0E41
:100F6000266EB0C11FF0B1C120F0B2C121F0B3C1F3
:100F700022F01EEC19F01FC03CF020C03DF021C053
:100F80003EF022C03FF0AB0E386EAA0E396EAA0EAC
:100F90003A6E3E0E3B6E8FEC20F038C0A4F139C0A3
:100FA000A5F13AC0A6F13BC0A7F1B0C123F0B1C191
:100FB00024F0B2C125F0B3C126F0B0C11FF0B1C119
:100FC00020F0B2C121F0B3C122F01EEC19F01FC015
:100FD00054F120C055F121C056F122C057F1B0C1E3
:100FE00023F0B1C124F0B2C125F0B3C126F0A4C1F1
:100FF0001FF0A5C120F0A6C121F0A7C122F01EEC70
:1010000019F01FC03CF020C03DF021C03EF022C0CE
:101010003FF0000E386E000E396E000E3A6E3F0E35
:101020003B6E8FEC20F038C048F139C049F13AC02E
:101030004AF13BC04BF154C11FF055C120F056C1DD
:1010400021F057C122F048C123F049C124F04AC120
:1010500025F04BC126F01EEC19F01FC044F120C052
:1010600045F121C046F122C047F1B0C11FF0B1C126
:1010700020F0B2C121F0B3C122F0000E236EAA0EFF
:10108000246EB80E256E3F0E266E1EEC19F01FC0A2
:1010900074F120C075F121C076F122C077F1700E95
:1010A000236EA50E246EEC0E256E360E266EB0C194
:1010B0001FF0B1C120F0B2C121F0B3C122F01EEC8B
:1010C00019F01FC038F020C039F021C03AF022C01A
:1010D0003BF03B0E236EAA0E246EB80E256E3F0E1B
:1010E000266E44C11FF045C120F046C121F047C122
:1010F00022F01EEC19F01FC03CF020C03DF021C0D2
:101100003EF022C03FF08FEC20F038C078F139C0BB
:1011100079F13AC07AF13BC07BF174C10FF075C12F
:1011200010F076C111F077C112F078C113F079C1D7
:1011300014F07AC115F07BC116F0C7EC1AF00FC09D
:1011400080F110C081F111C082F112C083F180C121
:10115000B8F181C1B9F182C1BAF183C1BBF1B8C1A3
:1011600090F1B9C191F1BAC192F1BBC193F1000EF6
:1011700001019015B86FF00E9115B96FFF0E921521
:10118000BA6FFF0E9315BB6FB8C180F1B9C181F181
:10119000BAC182F1BBC183F174C13CF075C13DF0AD
:1011A00076C13EF077C13FF080C138F081C139F09F
:1011B00082C13AF083C13BF08FEC20F038C094F14B
:1011C00039C095F13AC096F13BC097F178C138F03B
:1011D00079C139F07AC13AF07BC13BF094C13CF05F
:1011E00095C13DF096C13EF097C13FF08FEC20F0E5
:1011F00041EF10F0000E7C6F000E7D6F000E7E6FD1
:10120000000E7F6FABBF06D0AB5137E1800EAA5DF9
:10121000D8B033D070C11FF071C120F072C121F07D
:1012200073C122F0000E236E000E246E800E256E18
:101230004B0E266E1EEC19F01FC070F120C071F12C
:1012400021C072F122C073F1E80E01017C27FF0E6C
:101250007D23FF0E7E23FF0E7F2370C1B8F171C185
:10126000B9F172C1BAF173C1BBF1B8C1A8F1B9C18A
:10127000A9F1BAC1AAF1BBC1ABF1170E0001886F89
:10128000A8C189F0A9C18AF0AAC18BF0ABC18CF0CA
:10129000886701D007D08C358C338B338A33893300
:1012A000882FF6D7810E000189258D6FFF0E8A21C8
:1012B0008E6FFF0E8B218F6FFF0E8C21906F8D51E3
:1012C00001017C2700018E5101017D2300018F5116
:1012D00001017E230001905101017F23FF0EA8151B
:1012E000AC6FFF0EA915AD6F7F0EAA15AE6F000E85
:1012F000AB15AF6F000EAC11A86F000EAD11A96F4A
:10130000800EAE11AA6F3F0EAF11AB6FAFBF0AD008
:10131000AF510AE1720EAC5DC40EAD591C0EAE5950
:10132000D8B002D0000E0DD0AFBF0AD0AF5111E13E
:10133000D70EAC5DB30EAD595D0EAE59D8B009D025
:10134000010EA06F000EA16F000EA26F000EA36F22
:1013500016D0000EA06F000EA16F000EA26F000E3F
:10136000A36F010E7C27000E7D237E237F23000EBA
:10137000A827000EA923800EAA23FF0EAB23A8C125
:10138000B8F1A9C1B9F1AAC1BAF1ABC1BBF1B8C1F9
:1013900070F1B9C171F1BAC172F1BBC173F170C121
:1013A00038F071C139F072C13AF073C13BF0A0C19D
:1013B00088F0A1C189F00001D89088378937D8908A
:1013C00088378937690E8825F66E060E8921F76EF3
:1013D0000900F5CF3CF00900F5CF3DF00900F5CF4D
:1013E0003EF00A00F5CF3FF08FEC20F038C074F1EA
:1013F00039C075F13AC076F13BC077F1000E406E0E
:10140000000E416E800E426E3F0E436E70C113F0AF
:1014100071C114F072C115F073C116F0A0C188F04B
:10142000A1C189F00001D89088378937D8908837D2
:101430008937690E8825F66E060E8921F76E090038
:10144000F5CF0FF00900F5CF10F00900F5CF11F03E
:101450000A00F5CF12F0C7EC1AF00FC044F010C02C
:1014600045F011C046F012C047F04DEC1CF040C0F2
:1014700078F141C079F142C07AF143C07BF174C187
:101480001FF075C120F076C121F077C122F078C13C
:1014900023F079C124F07AC125F07BC126F01EEC3F
:1014A00019F01FC05CF120C05DF121C05EF122C0C7
:1014B0005FF15CC16CF15DC16DF15EC16EF15FC148
:1014C0006FF16CC1B8F16DC1B9F16EC1BAF16FC104
:1014D000BBF1B8C190F1B9C191F1BAC192F1BBC1F0
:1014E00093F1000E01019015B86FF00E9115B96FD0
:1014F000FF0E9215BA6FFF0E9315BB6FB8C16CF15A
:10150000B9C16DF1BAC16EF1BBC16FF1A8C188F06C
:10151000A9C189F0AAC18AF0ABC18BF000018B355B
:101520008B338A3389338833000E88158C6FF00E25
:1015300089158D6FFF0E8A158E6FFF0E8B158F6FBD
:10154000000E8C110101906F000E00018D11010140
:10155000916F000E00018E110101926F200E0001AB
:101560008F110101936FA0C188F0A1C189F0A2C1C0
:101570008AF0A3C18BF0150ED89000018837893707
:101580008A378B37E82EF8D7010190510001882562
:101590008C6F01019151000189218D6F01019251E0
:1015A00000018A218E6F0101935100018B218F6F01
:1015B000000E8C250101B86F000E00018D21010184
:1015C000B96F400E00018E210101BA6F000E0001BB
:1015D0008F210101BB6FB8C168F1B9C169F1BAC10E
:1015E0006AF1BBC16BF1A0C188F0A1C189F0000113
:1015F000D89088378937D89088378937690E8825F9
:10160000F66E060E8921F76E0900F5CF3CF0090051
:10161000F5CF3DF00900F5CF3EF00A00F5CF3FF0E1
:1016200068C138F069C139F06AC13AF06BC13BF06A
:101630008FEC20F038C094F139C095F13AC096F1A2
:101640003BC097F170C138F071C139F072C13AF006
:1016500073C13BF094C13CF095C13DF096C13EF0A2
:1016600097C13FF08FEC20F038C034F139C035F12C
:101670003AC036F13BC037F168C123F069C124F0AC
:101680006AC125F06BC126F06CC11FF06DC120F05E
:101690006EC121F06FC122F01EEC19F01FC03CF0AA
:1016A00020C03DF021C03EF022C03FF074C138F0B0
:1016B00075C139F076C13AF077C13BF08FEC20F07C
:1016C00038C094F139C095F13AC096F13BC097F11A
:1016D00034C123F035C124F036C125F037C126F0DE
:1016E0006CC11FF06DC120F06EC121F06FC122F0FE
:1016F0001EEC19F01FC03CF020C03DF021C03EF0B0
:1017000022C03FF094C138F095C139F096C13AF04B
:1017100097C13BF08FEC20F038C054F139C055F13F
:101720003AC056F13BC057F154C11FF055C120F0EB
:1017300056C121F057C122F078C123F079C124F0BD
:101740007AC125F07BC126F01EEC19F01FC030F1E4
:1017500020C031F121C032F122C033F15CC11FF051
:101760005DC120F05EC121F05FC122F05CC123F0B9
:101770005DC124F05EC125F05FC126F01EEC19F0BA
:101780001FC08CF120C08DF121C08EF122C08FF1DD
:10179000550E136E320E146E6C0E156E3E0E166ED6
:1017A000420E236EF10E246E530E256E3E0E266EF3
:1017B0008CC11FF08DC120F08EC121F08FC122F0AD
:1017C0001EEC19F01FC00FF020C010F021C011F066
:1017D00022C012F0C7EC1AF00FC0A4F110C0A5F19E
:1017E00011C0A6F112C0A7F1050E136EA30E146E60
:1017F0008B0E156E3E0E166E8CC123F08DC124F03B
:101800008EC125F08FC126F0A4C11FF0A5C120F024
:10181000A6C121F0A7C122F01EEC19F01FC00FF0E5
:1018200020C010F021C011F022C012F0C7EC1AF055
:101830000FC054F110C055F111C056F112C057F14C
:10184000AB0E136EAA0E146EAA0E156E3E0E166E19
:101850008CC123F08DC124F08EC125F08FC126F0FC
:1018600054C11FF055C120F056C121F057C122F0DC
:101870001EEC19F01FC00FF020C010F021C011F0B5
:1018800022C012F0C7EC1AF00FC048F110C049F1A5
:1018900011C04AF112C04BF1B70E136E6D0E146EEB
:1018A000DB0E156E3E0E166E8CC123F08DC124F03A
:1018B0008EC125F08FC126F048C11FF049C120F02C
:1018C0004AC121F04BC122F01EEC19F01FC00FF0ED
:1018D00020C010F021C011F022C012F0C7EC1AF0A5
:1018E0000FC038F110C039F111C03AF112C03BF10C
:1018F0009A0E136E990E146E190E156E3F0E166E1B
:101900008CC123F08DC124F08EC125F08FC126F04B
:1019100038C11FF039C120F03AC121F03BC122F09B
:101920001EEC19F01FC00FF020C010F021C011F004
:1019300022C012F0C7EC1AF00FC000F110C001F184
:1019400011C002F112C003F18CC123F08DC124F04B
:101950008EC125F08FC126F08CC11FF08DC120F003
:101960008EC121F08FC122F01EEC19F01FC004F1CE
:1019700020C005F121C006F122C007F100C11FF00F
:1019800001C120F002C121F003C122F004C123F003
:1019900005C124F006C125F007C126F01EEC19F0A0
:1019A0001FC04CF120C04DF121C04EF122C04FF1BB
:1019B00030C123F031C124F032C125F033C126F00B
:1019C0005CC113F05DC114F05EC115F05FC116F08B
:1019D0006CC10FF06DC110F06EC111F06FC112F04B
:1019E000C7EC1AF00FC01FF010C020F011C021F09A
:1019F00012C022F01EEC19F01FC058F120C059F19E
:101A000021C05AF122C05BF14CC10FF04DC110F062
:101A10004EC111F04FC112F058C113F059C114F06A
:101A20005AC115F05BC116F0C7EC1AF00FC04CF1AB
:101A300010C04DF111C04EF112C04FF16CC11FF03A
:101A40006DC120F06EC121F06FC122F06CC123F096
:101A50006DC124F06EC125F06FC126F01EEC19F0A7
:101A60001FC08CF120C08DF121C08EF122C08FF1FA
:101A7000000E136E000E146E400E156E400E166EA4
:101A80008CC10FF08DC110F08EC111F08FC112F01A
:101A9000C7EC1AF00FC058F110C059F111C05AF13B
:101AA00012C05BF158C10FF059C110F05AC111F0CA
:101AB0005BC112F04CC113F04DC114F04EC115F0D2
:101AC0004FC116F0C7EC1AF00FC068F110C069F1F1
:101AD00011C06AF112C06BF168C1B8F169C1B9F106
:101AE0006AC1BAF16BC1BBF1B8C190F1B9C191F152
:101AF000BAC192F1BBC193F1000E01019015B86F0C
:101B0000F00E9115B96FFF0E9215BA6FFF0E931577
:101B1000BB6FB8C168F1B9C169F1BAC16AF1BBC1A3
:101B20006BF1000E136E000E146E400E156EC00E9B
:101B3000166E68C10FF069C110F06AC111F06BC177
:101B400012F0C7EC1AF00FC03CF110C03DF111C00B
:101B50003EF112C03FF18CC13CF08DC13DF08EC111
:101B60003EF08FC13FF03CC138F03DC139F03EC17D
:101B70003AF03FC13BF08FEC20F038C040F139C063
:101B800041F13AC042F13BC043F14CC138F04DC184
:101B900039F04EC13AF04FC13BF040C13CF041C179
:101BA0003DF042C13EF043C13FF08FEC20F038C021
:101BB00034F139C035F13AC036F13BC037F16CC170
:101BC0001FF06DC120F06EC121F06FC122F068C11D
:101BD00023F069C124F06AC125F06BC126F01EEC28
:101BE00019F01FC074F120C075F121C076F122C038
:101BF00077F168C123F069C124F06AC125F06BC197
:101C000026F030C11FF031C120F032C121F033C1C4
:101C100022F01EEC19F01FC00FF020C010F021C000
:101C200011F022C012F05CC123F05DC124F05EC14E
:101C300025F05FC126F034C11FF035C120F036C158
:101C400021F037C122F01EEC19F01FC013F020C0A4
:101C500014F021C015F022C016F0C7EC1AF00FC026
:101C600078F110C079F111C07AF112C07BF174C122
:101C70000FF075C110F076C111F077C112F078C184
:101C800013F079C114F07AC115F07BC116F0C7ECDE
:101C90001AF00FC09CF110C09DF111C09EF112C04E
:101CA0009FF19CC1B8F19DC1B9F19EC1BAF19FC12C
:101CB000BBF1B8C190F1B9C191F1BAC192F1BBC108
:101CC00093F1000E01019015B86FF00E9115B96FE8
:101CD000FF0E9215BA6FFF0E9315BB6FB8C19CF142
:101CE000B9C19DF1BAC19EF1BBC19FF174C13CF075
:101CF00075C13DF076C13EF077C13FF09CC138F030
:101D00009DC139F09EC13AF09FC13BF08FEC20F0AD
:101D100038C094F139C095F13AC096F13BC097F1C3
:101D200078C138F079C139F07AC13AF07BC13BF023
:101D300094C13CF095C13DF096C13EF097C13FF093
:101D40008FEC20F038C064F139C065F13AC066F11B
:101D50003BC067F19CC11FF09DC120F09EC121F0E6
:101D60009FC122F0000E236E400E246E760E256E6B
:101D70003F0E266E1EEC19F01FC020F120C021F18D
:101D800021C022F122C023F14F0E236E380E246EA3
:101D9000760E256E3F0E266E64C11FF065C120F0E1
:101DA00066C121F067C122F01EEC19F01FC013F0CC
:101DB00020C014F021C015F022C016F0C60E236E0C
:101DC000230E246EF60E256EB80E266E9CC11FF0F3
:101DD0009DC120F09EC121F09FC122F01EEC19F0A0
:101DE0001FC00FF020C010F021C011F022C012F06F
:101DF000C7EC1AF00FC058F110C059F111C05AF1D8
:101E000012C05BF158C10FF059C110F05AC111F066
:101E10005BC112F0A0C188F0A1C189F00001D89087
:101E200088378937D89088378937010E8825F66E2C
:101E3000060E8921F76E0900F5CF13F00900F5CFE2
:101E400014F00900F5CF15F00A00F5CF16F0C7EC35
:101E50001AF00FC024F110C025F111C026F112C0F4
:101E600027F17CC101F07DC102F07EC103F07FC18A
:101E700004F0010E29EC1FF001C0B0F102C0B1F175
:101E800003C0B2F104C0B3F124C113F025C114F0B2
:101E900026C115F027C116F020C10FF021C110F0A6
:101EA00022C111F023C112F0C7EC1AF00FC058F193
:101EB00010C059F111C05AF112C05BF1A0C188F0F5
:101EC000A1C189F00001D89088378937D890883728
:101ED0008937090E8825F66E060E8921F76E0900EE
:101EE000F5CF13F00900F5CF14F00900F5CF15F088
:101EF0000A00F5CF16F058C10FF059C110F05AC1C1
:101F000011F05BC112F0C7EC1AF00FC008F110C05D
:101F100009F111C00AF112C00BF108C10FF009C19B
:101F200010F00AC111F00BC112F0B0C113F0B1C131
:101F300014F0B2C115F0B3C116F0C7EC1AF00FC01F
:101F400080F110C081F111C082F112C083F180C113
:101F5000B8F181C1B9F182C1BAF183C1BBF1B8C195
:101F600090F1B9C191F1BAC192F1BBC193F1000EE8
:101F700001019015B86FF00E9115B96FFF0E921513
:101F8000BA6FFF0E9315BB6FB8C180F1B9C181F173
:101F9000BAC182F1BBC183F1B0C13CF0B1C13DF027
:101FA000B2C13EF0B3C13FF080C138F081C139F019
:101FB00082C13AF083C13BF08FEC20F038C094F13D
:101FC00039C095F13AC096F13BC097F1A0C188F0B5
:101FD000A1C189F00001D89088378937D890883717
:101FE0008937090E8825F66E060E8921F76E0900DD
:101FF000F5CF3CF00900F5CF3DF00900F5CF3EF0FC
:102000000A00F5CF3FF094C138F095C139F096C180
:102010003AF097C13BF08FEC20F038C040F139C066
:1020200041F13AC042F13BC043F120C13CF021C133
:102030003DF022C13EF023C13FF040C138F041C124
:1020400039F042C13AF043C13BF08FEC20F038C088
:102050000CF139C00DF13AC00EF13BC00FF124C1B3
:1020600038F025C139F026C13AF027C13BF00CC148
:102070003CF00DC13DF00EC13EF00FC13FF08FECC2
:1020800020F038C01CF139C01DF13AC01EF13BC030
:102090001FF184C0B8F185C0B9F186C0BAF187C01C
:1020A000BBF1B8C190F1B9C191F1BAC192F1BBC114
:1020B00093F1000E01019015B86FF00E9115B96FF4
:1020C000FF0E9215BA6FFF0E9315BB6FB8C128F1C2
:1020D000B9C129F1BAC12AF1BBC12BF180C123F0EA
:1020E00081C124F082C125F083C126F028C13CF0D3
:1020F00029C13DF02AC13EF02BC13FF084C038F029
:1021000085C039F086C03AF087C03BF08FEC20F0F4
:1021100038C01FF039C020F03AC021F03BC022F097
:102120001EEC19F01FC010F120C011F121C012F1F6
:1021300022C013F110C10FF011C110F012C111F043
:1021400013C112F01CC123F01DC124F01EC125F0E3
:102150001FC126F084C01FF085C020F086C021F08A
:1021600087C022F01EEC19F01FC013F020C014F03D
:1021700021C015F022C016F0C7EC1AF00FC064F1B0
:1021800010C065F111C066F112C067F128C11FF0DF
:1021900029C120F02AC121F02BC122F080C123F0F7
:1021A00081C124F082C125F083C126F01EEC19F014
:1021B0001FC09CF120C09DF121C09EF122C09FF163
:1021C00064C10FF065C110F066C111F067C112F073
:1021D0009CC113F09DC114F09EC115F09FC116F073
:1021E000C7EC1AF00FC0B4F110C0B5F111C0B6F1D0
:1021F00012C0B7F1B4C1B8F1B5C1B9F1B6C1BAF105
:10220000B7C1BBF1B8C1ACF1B9C1ADF1BAC1AEF162
:10221000BBC1AFF10101AFBF3ED0AC05000EAD595F
:10222000000EAE59430EAF59D8A035D0CA0E236E5A
:10223000F20E246E490E256E710E266E88C11FF0B7
:1022400089C120F08AC121F08BC122F01EEC19F067
:102250001FC0A4F120C0A5F121C0A6F122C0A7F1A2
:10226000A4C11FF0A5C120F0A6C121F0A7C122F092
:10227000CA0E236EF20E246E490E256E710E266E66
:102280001EEC19F01FC080F020C081F021C082F048
:1022900022C083F01200430EAF19AC11AD11AE1184
:1022A000D8A46DD09CC13CF09DC13DF09EC13EF0D4
:1022B0009FC13FF0B4C138F0B5C139F0B6C13AF0B2
:1022C000B7C13BF08FEC20F038C040F039C041F08E
:1022D0003AC042F03BC043F03C0E136EAA0E146E9F
:1022E000380E156E330E166E64C10FF065C110F016
:1022F00066C111F067C112F0C7EC1AF00FC044F0CC
:1023000010C045F011C046F012C047F0C9EC1FF0F4
:10231000D8B0EDD0CA0E236EF20E246E490E256E93
:10232000710E266E88C11FF089C120F08AC121F08C
:102330008BC122F01EEC19F01FC0A4F120C0A5F142
:1023400021C0A6F122C0A7F1A4C11FF0A5C120F0B1
:10235000A6C121F0A7C122F0CA0E236EF20E246E90
:10236000490E256E710E266E1EEC19F01FC080F00E
:1023700020C081F021C082F022C083F01200FF0E45
:10238000AC150001886FFF0E0101AD150001896FCA
:10239000FF0E0101AE1500018A6F7F0E0101AF151E
:1023A00000018B6F8BBF3ED08805000E8959160E39
:1023B0008A59430E8B59D8A035D0600E236E420E39
:1023C000246EA20E256E0D0E266E88C11FF089C1E7
:1023D00020F08AC121F08BC122F01EEC19F01FC041
:1023E000A4F120C0A5F121C0A6F122C0A7F1A4C18B
:1023F0001FF0A5C120F0A6C121F0A7C122F0600EF8
:10240000236E420E246EA20E256E0D0E266E1EEC5D
:1024100019F01FC080F020C081F021C082F022C0DE
:1024200083F01200160E0101AE1961E1C30EAF195F
:10243000AC11AD11D8A45BD09CC13CF09DC13DF066
:102440009EC13EF09FC13FF0B4C138F0B5C139F034
:10245000B6C13AF0B7C13BF08FEC20F038C040F085
:1024600039C041F03AC042F03BC043F064C144F08F
:1024700065C145F066C146F067C147F0C9EC1FF081
:10248000D8A035D0600E236E420E246EA20E256EAB
:102490000D0E266E88C11FF089C120F08AC121F07F
:1024A0008BC122F01EEC19F01FC0A4F120C0A5F1D1
:1024B00021C0A6F122C0A7F1A4C11FF0A5C120F040
:1024C000A6C121F0A7C122F0600E236E420E246E39
:1024D000A20E256E0D0E266E1EEC19F01FC080F0A8
:1024E00020C081F021C082F022C083F01200FF0ED4
:1024F0000101AC152C6FFF0EAD152D6FFF0EAE1543
:102500002E6F7F0EAF152F6F170E0001886F2CC135
:1025100089F02DC18AF02EC18BF02FC18CF0886715
:1025200001D007D08C358C338B338A338933882F95
:10253000F6D7810E000189250101A06FFF0E000171
:102540008A210101A16FFF0E00018B210101A26F01
:10255000FF0E00018C210101A36F000E7C6F000EA5
:102560007D6F000E7E6F000E7F6F2FBFFCD02C059D
:10257000000E2D59000E2E593F0E2F59D8A0F3D022
:10258000A0C188F0010E00018827000E896F000E9F
:102590008A6F800E8B6F000E8C6F886701D007D01A
:1025A0008C358C338B338A338933882FF6D70101EE
:1025B000AC510001892501017C6FAD5100018A21D8
:1025C00001017D6FAE5100018B2101017E6FAF5182
:1025D00000018C2101017F6F810E0001886FFF0EC9
:1025E000896FFF0E8A6FFF0E8B6F170E8C6F7CC189
:1025F0008DF07DC18EF07EC18FF07FC190F08C6731
:1026000001D007D0903590338F338E338D338C2F9C
:10261000F6D700018D5188250101A06F000E000141
:1026200089210101A16F000E00018A210101A26F21
:10263000000E00018B210101A36FA0C188F0FF0EE5
:102640000001896FFF0E8A6F7F0E8B6F000E8C6FFB
:10265000886701D007D08C358C338B338A3389332C
:10266000882FF6D70001891D8D6F8A1D8E6F8B1DF7
:102670008F6F8C1D906F01017C5100018D15010140
:10268000B86F7D5100018E150101B96F7E510001B7
:102690008F150101BA6F7F51000190150101BB6FC9
:1026A000B8C1B0F1B9C1B1F1BAC1B2F1BBC1B3F1B6
:1026B000A05117080001886FFF0E01017C15000171
:1026C000896FFF0E01017D1500018A6F7F0E0101E8
:1026D0007E1500018B6F000E01017F1500018C6FCC
:1026E000000E89118D6F000E8A118E6F800E8B1176
:1026F0008F6F000E8C11906F886701D007D09035D6
:1027000090338F338E338D33882FF6D78DC07CF185
:102710008EC07DF18FC07EF190C07FF10101AFAF1F
:1027200008D07F1F7E1F7D1F7C6D000E7D237E23C2
:102730007F239CC138F09DC139F09EC13AF09FC102
:102740003BF0B0C13CF0B1C13DF0B2C13EF0B3C10D
:102750003FF08FEC20F038C09CF139C09DF13AC0B9
:102760009EF13BC09FF164C10FF065C110F066C1DE
:1027700011F067C112F09CC113F09DC114F09EC10D
:1027800015F09FC116F0C7EC1AF00FC0B0F110C0E1
:10279000B1F111C0B2F112C0B3F1B0C1B8F1B1C121
:1027A000B9F1B2C1BAF1B3C1BBF1B8C190F1B9C1CD
:1027B00091F1BAC192F1BBC193F1000E01019015E4
:1027C000B86F800E9115B96FFF0E9215BA6FFF0E9C
:1027D0009315BB6FB8C1B0F1B9C1B1F1BAC1B2F1D3
:1027E000BBC1B3F1B0C11FF0B1C120F0B2C121F043
:1027F000B3C122F0000E236E720E246E310E256ED0
:102800003F0E266E1EEC19F01FC074F120C075F14A
:1028100021C076F122C077F19CC13CF09DC13DF012
:102820009EC13EF09FC13FF0B0C138F0B1C139F058
:10283000B2C13AF0B3C13BF08FEC20F038C094F154
:1028400039C095F13AC096F13BC097F1180E236E4E
:10285000720E246E310E256E3F0E266E94C13CF032
:1028600095C13DF096C13EF097C13FF064C138F08C
:1028700065C139F066C13AF067C13BF08FEC20F0DA
:1028800038C01FF039C020F03AC021F03BC022F020
:102890001EEC19F01FC014F120C015F121C016F173
:1028A00022C017F114C10FF015C110F016C111F0BC
:1028B00017C112F08C0E236EBE0E246EBF0E256E55
:1028C000350E266EB0C11FF0B1C120F0B2C121F0AB
:1028D000B3C122F01EEC19F01FC013F020C014F099
:1028E00021C015F022C016F0C7EC1AF00FC078F125
:1028F00010C079F111C07AF112C07BF174C10FF0F0
:1029000075C110F076C111F077C112F078C113F0E3
:1029100079C114F07AC115F07BC116F0C7EC1AF03A
:102920000FC0B4F110C0B5F111C0B6F112C0B7F1CB
:1029300074C13CF075C13DF076C13EF077C13FF007
:10294000B4C138F0B5C139F0B6C13AF0B7C13BF007
:102950008FEC20F038C094F139C095F13AC096F16F
:102960003BC097F178C138F079C139F07AC13AF0BB
:102970007BC13BF094C13CF095C13DF096C13EF067
:1029800097C13FF08FEC20F038C044F139C045F1D9
:102990003AC046F13BC047F1B4C11FF0B5C120F0C9
:1029A000B6C121F0B7C122F0B4C123F0B5C124F003
:1029B000B6C125F0B7C126F01EEC19F01FC0B0F16A
:1029C00020C0B1F121C0B2F122C0B3F10E0E136EDE
:1029D000EA0E146EDD0E156EB50E166E4C0E236EDD
:1029E000BB0E246E310E256E330E266EB0C11FF065
:1029F000B1C120F0B2C121F0B3C122F01EEC19F038
:102A00001FC00FF020C010F021C011F022C012F042
:102A1000C7EC1AF00FC0A4F110C0A5F111C0A6F1C7
:102A200012C0A7F1550E136EB30E146E8A0E156EFA
:102A3000380E166EB0C123F0B1C124F0B2C125F03A
:102A4000B3C126F0A4C11FF0A5C120F0A6C121F09A
:102A5000A7C122F01EEC19F01FC00FF020C010F02B
:102A600021C011F022C012F0C7EC1AF00FC054F1CF
:102A700010C055F111C056F112C057F1610E136E1E
:102A80000B0E146E360E156EBB0E166EB0C123F013
:102A9000B1C124F0B2C125F0B3C126F054C11FF07A
:102AA00055C120F056C121F057C122F01EEC19F09B
:102AB0001FC00FF020C010F021C011F022C012F092
:102AC000C7EC1AF00FC048F110C049F111C04AF12B
:102AD00012C04BF1AB0E136EAA0E146E2A0E156EB9
:102AE0003E0E166EB0C123F0B1C124F0B2C125F084
:102AF000B3C126F048C11FF049C120F04AC121F0FE
:102B00004BC122F01EEC19F01FC00FF020C010F0D6
:102B100021C011F022C012F0C7EC1AF00FC038F13A
:102B200010C039F111C03AF112C03BF1B4C138F014
:102B3000B5C139F0B6C13AF0B7C13BF0B0C123F02E
:102B4000B1C124F0B2C125F0B3C126F038C11FF0E5
:102B500039C120F03AC121F03BC122F01EEC19F03E
:102B60001FC03CF020C03DF021C03EF022C03FF02D
:102B70008FEC20F038C080F139C081F13AC082F189
:102B80003BC083F1000E136E000E146E000E156E26
:102B9000C00E166E80C10FF081C110F082C111F01D
:102BA00083C112F0C7EC1AF00FC044F010C045F01A
:102BB00011C046F012C047F080C123F081C124F05B
:102BC00082C125F083C126F0B4C11FF0B5C120F049
:102BD000B6C121F0B7C122F01EEC19F01FC040F0C1
:102BE00020C041F021C042F022C043F04DEC1CF067
:102BF00040C03CF141C03DF142C03EF143C03FF115
:102C000044C113F045C114F046C115F047C116F098
:102C100044C123F045C124F046C125F047C126F048
:102C2000B4C11FF0B5C120F0B6C121F0B7C122F088
:102C30001EEC19F01FC00FF020C010F021C011F0E1
:102C400022C012F0C7EC1AF00FC018F110C019F131
:102C500011C01AF112C01BF13CC138F03DC139F06E
:102C60003EC13AF03FC13BF018C13CF019C13DF004
:102C70001AC13EF01BC13FF08FEC20F038C04CF180
:102C800039C04DF13AC04EF13BC04FF1B4C13CF0F8
:102C9000B5C13DF0B6C13EF0B7C13FF04CC138F010
:102CA0004DC139F04EC13AF04FC13BF08FEC20F0EE
:102CB00038C094F139C095F13AC096F13BC097F114
:102CC000000E386E000E396E800E3A6E3F0E3B6E6F
:102CD00094C13CF095C13DF096C13EF097C13FF0E4
:102CE0008FEC20F038C0B4F139C0B5F13AC0B6F17C
:102CF0003BC0B7F1B4C1B8F1B5C1B9F1B6C1BAF1D1
:102D0000B7C1BBF1B8C1ACF1B9C1ADF1BAC1AEF157
:102D1000BBC1AFF17CC188F07DC189F07EC18AF072
:102D20007FC18BF0170ED8900001883789378A371A
:102D30008B37E82EF8D788510101AC270001895163
:102D40000101AD2300018A510101AE2300018B5125
:102D50000101AF23170E0001886FACC189F0ADC12E
:102D60008AF0AEC18BF0AFC18CF0886701D007D07C
:102D70008C358C338B338A338933882FF6D7000117
:102D80008CBF07D08C518B118A111AE18905D8B0FC
:102D900017D0B4C138F0B5C139F0B6C13AF0B7C1F7
:102DA0003BF07CC13CF07DC13DF091EC1DF038C0A2
:102DB000B4F139C0B5F13AC0B6F13BC0B7F110D0AB
:102DC000ACC1B8F1ADC1B9F1AEC1BAF1AFC1BBF19F
:102DD000B8C1B4F1B9C1B5F1BAC1B6F1BBC1B7F16F
:102DE00088C11FF089C120F08AC121F08BC122F077
:102DF000B4C123F0B5C124F0B6C125F0B7C126F0A7
:102E00001EEC19F01FC080F020C081F021C082F0BC
:102E100022C083F012004CC061F04DC062F04EC081
:102E200063F04FC064F061C079F062C07AF063C0B3
:102E30007BF064C07CF0000E7914506E000E7A14A2
:102E4000516E800E7B14526E7F0E7C14536E800E7A
:102E5000521833E17F0E531850105110D8A42DD0C2
:102E60004CC023F04DC024F04EC025F04FC026F0DA
:102E70004CC01FF04DC020F04EC021F04FC022F0DA
:102E80001EEC19F01FC00FF020C010F021C011F08F
:102E900022C012F04CC013F04DC014F04EC015F01B
:102EA0004FC016F0C7EC1AF00FC04CF010C04DF038
:102EB00011C04EF012C04FF012007CBE07D07C5003
:102EC0007B107A1034E17904D8B031D0FF0E791438
:102ED000506EFF0E7A14516EFF0E7B14526E7F0EF1
:102EE0007C14536E5050511052105310D8A409D076
:102EF0004CC04CF04DC04DF04EC04EF04FC04FF0A6
:102F000012007CAE14D0000E0001AE6F210EAD6F2A
:102F10007D0E016E060E026EE3EC20F001C04CF057
:102F200002C04DF003C04EF004C04FF01200170E67
:102F3000506E79C051F07AC052F07BC053F07CC023
:102F400054F0506601D007D05434543253325232C8
:102F50005132502EF6D751C071F052C072F053C0AA
:102F600073F054C074F07150721073107410D8A4C0
:102F70002AD0000E5D6E000E5E6E000E5F6E000EBB
:102F8000606E0BD0D89079367A367B367C36010E5F
:102F90005D26000E5E225F2260227BAEF3D7FF0E1D
:102FA0005D24506EFF0E5E20516EFF0E5F20526E4C
:102FB000FF0E6020536E5050715E5150725A525045
:102FC000735A5350745A810E7126FF0E7222FF0EEF
:102FD0007322FF0E7422FF0E7914506EFF0E7A14C6
:102FE000516E7F0E7B14526E000E7C14536E000ED9
:102FF0005010796E000E51107A6E800E52107B6E5A
:10300000000E53107C6E71A008D0795079267A504A
:103010007A227B507B227C507C227434743273324F
:1030200072327132795079267A507A227B507B2223
:103030007C507C22000E596E000E5A6E000E5B6EA4
:10304000000E5C6E59C065F05AC066F05BC067F058
:103050005CC068F0000E756E000E766E000E776E26
:10306000010E786E43D075505924696E76505A20FF
:103070006A6E77505B206B6E78505C206C6E695086
:10308000795C6A507A586B507B587C50800A506E3D
:103090006C50800A5058D8A01CD075506924596EC5
:1030A00076506A205A6E77506B205B6E78506C2099
:1030B0005C6E6950795E6A507A5A6B507B5A6C50DC
:1030C0007C5A755065267650662277506722785074
:1030D0006822795079267A507A227B507B227C5064
:1030E0007C22D890783277327632753275507610ED
:1030F00077107810D8A4B7D779507A107B107C104D
:10310000D8B452D0000E6D6E000E6E6E800E6F6ED3
:103110003F0E706E6DC040F06EC041F06FC042F067
:1031200070C043F0000E446E000E456E800E466E79
:103130003F0E476EC9EC1FF0D8A036D0000E6D6E62
:10314000000E6E6E800E6F6E3F0E706E000E406E43
:10315000000E416E800E426E3F0E436E6DC044F015
:103160006EC045F06FC046F070C047F0C9EC1FF06C
:10317000D8B006D0020E6526000E6622672213D054
:10318000010E6514506E000E6614516E000E671429
:10319000526E000E6814536E5050652651506622D0
:1031A000525067225350682265C050F066C051F0FB
:1031B00067C052F068C053F0533453325232513228
:1031C0005032000E5024796E000E51207A6E000E9F
:1031D00052207B6E3F0E53207C6E71C050F072C047
:1031E00051F073C052F074C053F0170ED89050369F
:1031F000513652365336E82EF9D750507926515071
:103200007A2252507B2253507C2279C061F07AC0DE
:1032100062F07BC063F07CC064F061C06DF062C09E
:103220006EF063C06FF064C070F06DC04CF06EC0A3
:103230004DF06FC04EF070C04FF012002250800B66
:103240002B6E22502224316E21BE31803150D8B4F1
:103250000DD03128D8A408D0000E1F6E000E206EAD
:10326000000E216E000E226E218E08D0000E1F6E01
:10327000000E206E000E216E000E226E2650800B76
:103280002B1A26502624306E25BE30803050D8B4FC
:103290000DD03028D8A408D0000E236E000E246E66
:1032A000000E256E000E266E258E08D0000E236EB1
:1032B000000E246E000E256E000E266E3050D8B41F
:1032C00003D03150D8A409D0000E1F6E000E206E1E
:1032D000000E216E000E226E120025501F02F3CF49
:1032E00036F0F4CF37F036502C6E2D6A2E6A2F6AE6
:1032F0003750326E336A346A356A24502002F3CF75
:1033000036F0F4CF37F036502C26000E2D222E2228
:103310002F2237503226000E3322342235222350FA
:103320002102F3CF36F0F4CF37F036502C26000EC2
:103330002D222E222F2237503226000E3322342205
:1033400035222EC02FF02DC02EF02CC02DF02C6A6F
:1033500023502002F3CF36F0F4CF37F036502C262E
:1033600037502D22000E2E22000E2F2224501F0235
:10337000F3CF36F0F4CF37F036502C2637502D22CD
:10338000000E2E22000E2F222EC02FF02DC02EF068
:103390002CC02DF02C6A23501F02F3CF36F0F4CF4F
:1033A00037F036502C2637502D22000E2E22000EDC
:1033B0002F2225502002F3CF36F0F4CF37F03650CD
:1033C000322637503322000E3422000E352224508C
:1033D0002102F3CF36F0F4CF37F036503226375093
:1033E0003322000E3422000E352225502102F3CF65
:1033F00036F0F4CF37F03650276E3750286E296AF2
:103400002A6A29C02AF028C029F027C028F0276A94
:103410002750322628503322295034222A50352270
:103420002CC027F02DC028F02EC029F02FC02AF084
:10343000190E05D0D8902A32293228322732E82EA8
:10344000F9D72750322628503322295034222A50C7
:1034500035222EC02FF02DC02EF02CC02DF02C6A5E
:10346000305031C027F0286A2726000E2822820E0D
:103470002724366EFF0E2820376E0FD0D8903236B4
:103480003336343635362FBE3280D8902C362D3632
:103490002E362F363606D8A0370634AEEFD7000EBC
:1034A000306E2FAE17D0FF0E2C14276EFF0E2D148A
:1034B000286EFF0E2E14296E7F0E2F142A6E2750B1
:1034C000281029102A10D8B403D0010E306E02D073
:1034D00032B0FBD73050D8B41FD0010E3226000EC8
:1034E00033223422352235A017D032C027F033C022
:1034F00028F034C029F035C02AF02A342A32293283
:103500002832273227C032F028C033F029C034F0E7
:103510002AC035F0364A372A37BE0DD0375003E17E
:103520003628D8A008D0000E326E000E336E800E02
:10353000346E7F0E20D037BE05D037500EE13604F2
:10354000D8B00BD0000E326E000E336E000E346E0B
:10355000000E356E000E2B6E0FD036C031F0FF0E10
:103560003216FF0E33167F0E3416000E351631B0AC
:10357000348ED8903130356E2B50351232C01FF05A
:1035800033C020F034C021F035C022F012001250B8
:10359000800B1B6E125012241D6E11BE1D801D501B
:1035A000D8B40DD01D28D8A408D0000E0F6E000E80
:1035B000106E000E116E000E126E118E06D0000EEF
:1035C0000F6E000E106E000E116E000E126E165071
:1035D000800B1C6E1B501C18D8A41B8C1650162474
:1035E0001C6E15BE1C801C50D8B40DD01C28D8A44D
:1035F00008D0000E136E000E146E000E156E000E35
:10360000166E158E06D0000E136E000E146E000E90
:10361000156E000E166E1D501C5CD8B022D01BAC6F
:1036200002D0800E1B1A1DC01EF01CC01DF01EC053
:103630001CF00FC01EF013C00FF01EC013F010C01E
:103640001EF014C010F01EC014F011C01EF015C002
:1036500011F01EC015F012C01EF016C012F01EC0F0
:1036600016F0000E1E6E1D501CC017F0186A175E73
:10367000000E185A18BE2CD0185004E11A0E175C10
:10368000D8A026D00F50101011101210D8B402D0AC
:10369000010E01D0000E1E6E000E0F6E000E106E99
:1036A000000E116E000E126E1CC01DF015D01EA073
:1036B00005D0D8901E3001091E6E02D0D8901E325F
:1036C0000FB01E8E12341232113210320F321D2AF8
:1036D0001C501D5CD8A0EBD71BBC28D01D50D8A413
:1036E00009D0000E0F6E000E106E000E116E000E4F
:1036F000126E120013500F26145010221550112272
:103700001650122212A071D01EA005D0D8901E30E3
:1037100001091E6E02D0D8901E320FB01E8E1234D8
:103720001232113210320F321D2A5FD013500F5C4B
:1037300014501058155011581250800A176E165018
:10374000800A1758D8B025D00F50135C176E105050
:103750001458186E11501558196E125016581A6ECA
:10376000FF0E17240F6EFF0E1820106EFF0E19208B
:10377000116EFF0E1A20126E800E1B1A1E6C1E5048
:10378000D8A40FD0010E0F26000E102211221222F3
:1037900008D013500F5E1450105A1550115A16507D
:1037A000125A0F50101011101210D8A41CD01E5015
:1037B000D8A419D0000E0F6E000E106E000E116E00
:1037C000000E126E1200D8900F36103611361236D7
:1037D0001EBE0F801EA002D0D88001D0D8901E3609
:1037E0001D50D8A41D0611AEEED7000E1C6E1EAEE5
:1037F0000BD01EC017F07F0E1716D8B403D0010EE1
:103800001C6E02D00FB0FBD71C50D8B420D0010ED4
:103810000F26000E10221122122212A018D00FC063
:1038200017F010C018F011C019F012C01AF01A34B5
:103830001A3219321832173217C00FF018C010F0B0
:1038400019C011F01AC012F01D28D8A41D2A1D2875
:10385000D8B403D01D50D8A40DD0000E0F6E000EAA
:10386000106E000E116E000E126E1D50D8A402D004
:10387000000E1B6E1DA002D0118E01D0119ED8909B
:103880001D30126E1BBE128E0FC00FF010C010F054
:1038900011C011F012C012F012004350800B506E94
:1038A00043504324576E42BE57805750D8B40DD072
:1038B0005728D8A408D0000E406E000E416E000EAE
:1038C000426E000E436E428E06D0000E406E000E19
:1038D000416E000E426E000E436E4750800B501A30
:1038E00047504724586E46BE58805850D8B40DD023
:1038F0005828D8A408D0000E446E000E456E000E65
:10390000466E000E476E468E06D0000E446E000EC8
:10391000456E000E466E000E476E44504510461030
:103920004710D8A417D0000E406E000E416E000E56
:10393000426E000E436E800E42127F0E43125050B4
:10394000431240C040F041C041F042C042F043C089
:1039500043F012005750D8A409D0000E406E000E5C
:10396000416E000E426E000E436E1200585057C05A
:1039700048F0496A485E000E495A7F0E4824516E4D
:10398000000E4920526E40C04CF041C04DF042C084
:103990004EF043C04FF0000E406E000E416E000E20
:1039A000426E000E436E000E536E000E546E000EFB
:1039B000556E000E566E000E586E28D05850D8B472
:1039C00011D0D8904C364D364E364F36D8904036C2
:1039D00041364236433656BE4080D8905336543630
:1039E0005536563644504C5C45504D5846504E580E
:1039F00047504F58D8A009D0568C44504C5E455083
:103A00004D5A46504E5A47504F5A582A190E58642C
:103A1000D5D74C504D104E104F10D8B411D0538004
:103A20000FD0D890403641364236433656BE40809D
:103A3000D89053365436553656365106D8A05206CD
:103A400042AEEFD7000E586E56AE17D0FF0E53148D
:103A5000486EFF0E5414496EFF0E55144A6E7F0EC9
:103A600056144B6E485049104A104B10D8B403D02E
:103A7000010E586E02D040B0FBD75850D8B41FD0BA
:103A8000010E4026000E41224222432243A017D0BD
:103A900040C048F041C049F042C04AF043C04BF03A
:103AA0004B344B324A324932483248C040F049C068
:103AB00041F04AC042F04BC043F0514A522A52BE34
:103AC00010D0525003E15128D8A00BD0000E526EF6
:103AD0005168000E406E000E416E000E426E000EE8
:103AE000436E52BE05D0525011E15104D8B00ED0F1
:103AF000000E526E000E516E000E406E000E416EB2
:103B0000000E426E000E436E000E506E51C057F014
:103B100057A002D0428E01D0429ED8905730436EBB
:103B20000ED738C046F039C047F03AC048F03BC025
:103B300049F03DBE56D03D5004E1800E3C5CD8A01B
:103B400050D046C01FF047C020F048C021F049C007
:103B500022F0000E236E000E246E000E256E7F0EE6
:103B6000266E1EEC19F01FC046F020C047F021C0A1
:103B700048F022C049F0810E3C26FF0E3D223DBE9A
:103B800088D03D5004E1800E3C5CD8A082D046C075
:103B90001FF047C020F048C021F049C022F0000EBD
:103BA000236E000E246E000E256E7F0E266E1EEC18
:103BB00019F01FC046F020C047F021C048F022C0D5
:103BC00049F0810E3C26FF0E3D223DBE62D03D50A5
:103BD00004E1800E3C5CD8A05CD0000E3D6E7F0EF0
:103BE00057D03DAE56D0820E3C5CFF0E3D58D8B04B
:103BF00050D046C01FF047C020F048C021F049C057
:103C000022F0000E236E000E246E800E256E0C0E28
:103C1000266E1EEC19F01FC046F020C047F021C0F0
:103C200048F022C049F0660E3C26000E3D223DAE13
:103C300030D0820E3C5CFF0E3D58D8B02AD046C032
:103C40001FF047C020F048C021F049C022F0000E0C
:103C5000236E000E246E800E256E0C0E266E1EEC5A
:103C600019F01FC046F020C047F021C048F022C024
:103C700049F0660E3C26000E3D223DAE0AD0820E73
:103C80003C5CFF0E3D58D8B004D0FF0E3D6E820E56
:103C90003C6E7F0E3C243E6E000E3D203F6E406A1F
:103CA000416A170ED8903E363F3640364136E82EF0
:103CB000F9D73EC042F03FC043F040C044F041C09D
:103CC00045F042C01FF043C020F044C021F045C081
:103CD00022F046C023F047C024F048C025F049C078
:103CE00026F01EEC19F01FC038F020C039F021C0BA
:103CF0003AF022C03BF038C038F039C039F03AC051
:103D00003AF03BC03BF0120002EC21F0000E000143
:103D1000A46F010EA36F000EA66F010EA56F000E1B
:103D2000A86F000EA76FA7C001F0A8C002F0000E98
:103D300002BEFF0E036E046E010E29EC1FF001C0DF
:103D40009BF002C09CF003C09DF004C09EF09BC09D
:103D500084F09CC085F09DC086F09EC087F0000E68
:103D60000001806F000E816F000E826F400E836F26
:103D700040EC03F080C09FF081C0A0F082C0A1F0B1
:103D800083C0A2F09FC013F0A0C014F0A1C015F032
:103D9000A2C016F0A5C099F0A6C09AF0070ED89060
:103DA000000199379A37E82EFAD799C001F09AC0E6
:103DB00002F0000E02BEFF0E036E046E010E29EC2F
:103DC0001FF001C00FF002C010F003C011F004C0DA
:103DD00012F0C7EC1AF00FC091F010C092F011C0B1
:103DE00093F012C094F031EC20F000019151836EF9
:103DF000060E00019A6F130E996FAD0EE82EFED7D6
:103E0000992FFCD79A2FFAD700D0040E0001A319DE
:103E1000A411D8A410D0A505A611D8A404D0000ED2
:103E2000A66F000E03D0000EA66F010EA56F000E48
:103E3000A46F000EA36FA34BA42BA74BA82BA8BF66
:103E400072D7A85105E1060EA75DD8B068D76BD729
:103E500066D7096E0950D8A404AE1AD001C005F087
:103E600002C006F003C007F004C008F0051E061EDD
:103E7000071E081E052A000E06220722082205C07A
:103E80000BF006C00CF007C00DF008C00EF008D013
:103E900001C00BF002C00CF003C00DF004C00EF026
:103EA0000150021003100410D8A409D0000E016EB6
:103EB000000E026E000E036E000E046E1200960ECF
:103EC0000A6E06D00A2AD8900E320D320C320B320E
:103ED000000E0B14056E000E0C14066E000E0D1471
:103EE000076EFE0E0E14086E05500610071008101F
:103EF000D8B40DD0E7D70A2A010E0B26000E0C22EB
:103F00000D220E22D8900E320D320C320B32000EE2
:103F10000B14056E000E0C14066E000E0D14076EC9
:103F2000FF0E0E14086E0550061007100810D8B4C6
:103F300007D0E1D70A06D8900B360C360D360E3670
:103F40000DBE03D0020E0A60F5D70AA00D9ED890D0
:103F50000A320AC005F0066A076A086A05C008F056
:103F6000076A066A056A05500B1206500C120750C4
:103F70000D1208500E120950D8A404AE01D00E8EB6
:103F80000BC001F00CC002F00DC003F00EC004F035
:103F90001200000E4014486E000E4114496E800E4F
:103FA00042144A6E7F0E43144B6E485049104A101B
:103FB0004B10D8A408D0000E406E000E416E000ECB
:103FC000426E000E436E000E4414486E000E4514FF
:103FD000496E800E46144A6E7F0E47144B6E485051
:103FE00049104A104B10D8A408D0000E446E000EA1
:103FF000456E000E466E000E476E43AE09D0406C13
:10400000411ED8B0412A421ED8B0422A800E4356E3
:1040100047AE09D0446C451ED8B0452A461ED8B0DC
:10402000462A800E4756000E401A000E411A000E16
:10403000421A800E431A000E441A000E451A000E52
:10404000461A800E471A4450405C4550415846502D
:10405000425847504358D8B002D0D8901200D88068
:1040600012000001933594357E6E7E50D8A409D09D
:10407000000E916F000E926F000E936F000E946F02
:10408000120091C095F092C096F093C097F094C042
:1040900098F0200E05D0D890983397339633953307
:1040A000E82EF9D795517D6E938FFF0E9117FF0E75
:1040B0009217FF0E9317000E9417960E7E5E7EAE3B
:1040C0000DD07E50800A970FD8A0D2D7D8909433C5
:1040D0009333923391337E3EF9D70DD01F0E7E6419
:1040E00007D0C6D7D89091379237933794377E064A
:1040F0007E50D8A4F7D77D50D8B408D0941F931F12
:10410000921F916D000E92239323942391C091F0FE
:1041100092C092F093C093F094C094F01200000EFD
:104120003C1A000E3D1A000E3E1A800E3F1A38C08F
:104130000FF039C010F03AC011F03BC012F03CC093
:1041400013F03DC014F03EC015F03FC016F0C7ECB0
:104150001AF00FC038F010C039F011C03AF012C098
:104160003BF01200A9C005F0AAC006F0ABC007F0F2
:10417000ACC008F001C005F002C006F003C007F0B3
:1041800004C008F0089E05C001F006C002F007C098
:1041900003F008C004F012000150021003100410D4
:1041A000D8B408D0000E011A000E021A000E031A2D
:1041B000800E041A01C001F002C002F003C003F037
:1041C00004C004F01200FF0E056EFF0E066EFF0E17
:1041D000076E7F0E086E05C001F006C002F007C032
:1041E00003F008C004F012000001AE6BAD6BAC6BC5
:1041F000AB6BAA6BA96B000EF86E060EF76E000192
:1042000084EF1EF0000E816E020E826E000E836E31
:0E421000000E936E000E946E000E956E12005E
:020000040020DA
:08000000FFFFFFFFFFFFFFFF00
:020000040030CA
:0E000000FF021F1EFF8385FF0FC00FE00F40A1
:00000001FF
